:10C08E0000000AC01624223B2EAA3B1147B9548049
:10C09E0061406E5B7B5B888895FDA363B125BEF91D
:10C0AE00CCCC00000CCD199A2666333340004CCD13
:10C0BE0059996666733380008CCC9999A666B33312
:10C0CE00BFFFCCCC0000000000000000000000000C
:10C0DE000000000000000000000000000000000052
:10C0EE00000000000AC01645227D2ECB3B31481BB6
:10C0FE00552461E36E5B7B5B888895FDA363B12558
:10C10E00BEF9CCCC0000045A0D9119AE2680334DE9
:10C11E0040194CE659B36680736D81408FC99E7885
:10C12E00ADAEBD43CCCC00050009000D00110015CD
:10C13E00001700FF0000C0C1C1810140C30103C050
:10C14E000280C241C60106C00780C7410500C5C1B5
:10C15E00C4810440CC010CC00D80CD410F00CFC175
:10C16E00CE810E400A00CAC1CB810B40C90109C065
:10C17E000880C841D80118C01980D9411B00DBC105
:10C18E00DA811A401E00DEC1DF811F40DD011DC0B5
:10C19E001C80DC411400D4C1D5811540D70117C0D5
:10C1AE001680D641D20112C01380D3411100D1C1E5
:10C1BE00D0811040F00130C03180F1413300F3C125
:10C1CE00F28132403600F6C1F7813740F50135C0B5
:10C1DE003480F4413C00FCC1FD813D40FF013FC075
:10C1EE003E80FE41FA013AC03B80FB413900F9C165
:10C1FE00F88138402800E8C1E9812940EB012BC0C5
:10C20E002A80EA41EE012EC02F80EF412D00EDC1B4
:10C21E00EC812C40E40124C02580E5412700E7C1D4
:10C22E00E68126402200E2C1E3812340E10121C0E4
:10C23E002080E041A00160C06180A1416300A3C1E4
:10C24E00A28162406600A6C1A7816740A50165C0B4
:10C25E006480A4416C00ACC1AD816D40AF016FC074
:10C26E006E80AE41AA016AC06B80AB416900A9C164
:10C27E00A88168407800B8C1B9817940BB017BC004
:10C28E007A80BA41BE017EC07F80BF417D00BDC1B4
:10C29E00BC817C40B40174C07580B5417700B7C1D4
:10C2AE00B68176407200B2C1B3817340B10171C0E4
:10C2BE007080B041500090C191815140930153C0A4
:10C2CE0052809241960156C057809741550095C1B4
:10C2DE00948154409C015CC05D809D415F009FC174
:10C2EE009E815E405A009AC19B815B40990159C064
:10C2FE0058809841880148C0498089414B008BC1C4
:10C30E008A814A404E008EC18F814F408D014DC0B3
:10C31E004C808C41440084C185814540870147C0D3
:10C32E0046808641820142C043808341410081C1E3
:06C33E0080814040050172
:10C5620041027200019400014600013B0001AC004F
:10C57200014A00043C00000000023100FF024300B7
:10C582000002A000000495000000000499000000D1
:10C592000004A40000000004A800000000C116C1AD
:10C5A20018023600000238000042029D00004102DB
:10C5B2002B00014000C10C013A004202240000029B
:10C5C20047000002810000027F0000029000000488
:10C5D2008300000000C1104102710141022F00429C
:10C5E200029A00004202A1000041029C0041024D59
:10C5F2001E4102990041027000022E0000C119C1C1
:10C6020008C11A410297004102980041022C0041E0
:10C61200022D0041027300014500014C000133006C
:10C62200022C0000C104C103C10FC10EC101C1022D
:10C63200C113C114C10DC1090241000042029F0091
:10C6420000013400013000019E00019D00029200B1
:10C6520000019F00044F000000000454000000008D
:03001B0002AE250D
:10AE2500C0E0C0F0C083C082C0D075D008C28F75A5
:10AE35008DF3758BD2853143853244AF807E008E8C
:10AE4500318F32789912BBC27B017A007900780084
:10AE5500EF2BFFEE3AFEED39FDEC38FC789912BB8D
:10AE6500DB789512BBC27B017A0079007800EF2B65
:10AE7500FFEE3AFEED39FDEC38FC789512BBDB7838
:10AE85008006E618700106E54E64FF604B787FE6A4
:10AE9500FE08E6FFEF64907003EE6401705378EEF0
:10AEA50012BBC2AB4EEB25E025E02480F582E434ED
:10AEB50001F583E0F8A3E0F9A3E0FAA3E0FBEF2BAB
:10AEC500FFEE3AFEED39FDEC38FC78EE12BBDB788F
:10AED5007F76000876008019787FE6FE08E6FFD3C6
:10AEE500EF94A0EE940F4009787F7600087600D2A3
:10AEF50013788206E618700106E54D64FF604B780D
:10AF050081E6FE08E6FFEF64907003EE640170537E
:10AF150078EA12BBC2AB4DEB25E025E02480F58233
:10AF2500E43401F583E0F8A3E0F9A3E0FAA3E0FB3C
:10AF3500EF2BFFEE3AFEED39FDEC38FC78EA12BB5B
:10AF4500DB7881760008760080197881E6FE08E6D0
:10AF5500FFD3EF94A0EE940F400978817600087630
:10AF650000D2147889E6FFEF700302B0EE7889E627
:10AF7500FF7E00EE5531FEEF5532FF7889E6FD7C08
:10AF850000EF6D7002EE6C70047F0180027F007827
:10AF950089E6FEEEFD7C00EC5543FCED5544FD785D
:10AFA50089E6FEEEFB7A00ED6B7002EC6A60047ECA
:10AFB5000180027E00EE5FFFEF700302B06A053D7F
:10AFC500E53D7002053C20181CD218753C00753D06
:10AFD50000C204789912BBF30000000078A812BBE8
:10AFE500F3000000007F007E007D007C00AB57AAC7
:10AFF50056A955A854C312BB8B604BAF57AE56AD7F
:10B0050055AC54789912BBCED312BB8B4023D204D6
:10B01500853C38853D39789912BBC278A812BBDBCF
:10B02500789912BBF300000000753C00753D008067
:10B0350034200431853C38853D39789912BBC27876
:10B04500A812BBDB801F853C38853D39789912BB3A
:10B05500C278A812BBDB789912BBF300000000751B
:10B065003C00753D00AE38AF39E4FCFDECC0E0EDC9
:10B07500C0E0EEC0E0EFC0E078A812BBC2D0E0FBB4
:10B08500D0E0FAD0E0F9D0E0F812BAD5780112BBD9
:10B09500AFEF2557FFEE3556FEED3555FDEC355432
:10B0A500FC789912BBCED312BB8B400A789912BBA0
:10B0B500C278A812BBDB7F807E387D017C00789941
:10B0C50012BBCEC312BB8B40207538007539007595
:10B0D5003C00753D0078A812BBF30000000078998C
:10B0E50012BBF300000000C2187888E6FFEF70037A
:10B0F50002B2747888E6FF7E00EE5531FEEF5532D8
:10B10500FF7888E6FD7C00EF6D7002EE6C70047FC1
:10B115000180027F007888E6FEEEFD7C00EC554359
:10B12500FCED5544FD7888E6FEEEFB7A00ED6B708C
:10B1350002EC6A60047E0180027E00EE5FFFEF7024
:10B145000302B1F0053FE53F7002053E20161CD213
:10B1550016753E00753F00C203789512BBF30000DB
:10B16500000078A412BBF3000000007F007E007D84
:10B17500007C00AB52AA51A950A84FC312BB8B60EB
:10B185004BAF52AE51AD50AC4F789512BBCED312EA
:10B19500BB8B4023D203853E36853F37789512BB5E
:10B1A500C278A412BBDB789512BBF30000000075D2
:10B1B5003E00753F008034200331853E36853F379C
:10B1C500789512BBC278A412BBDB801F853E3685FD
:10B1D5003F37789512BBC278A412BBDB789512BBBA
:10B1E500F300000000753E00753F00AE36AF37E452
:10B1F500FCFDECC0E0EDC0E0EEC0E0EFC0E078A4FF
:10B2050012BBC2D0E0FBD0E0FAD0E0F9D0E0F812F2
:10B21500BAD5780112BBAFEF2552FFEE3551FEEDE1
:10B225003550FDEC354FFC789512BBCED312BB8B58
:10B23500400A789512BBC278A412BBDB7F807E38AA
:10B245007D017C00789512BBCEC312BB8B40207567
:10B255003600753700753E00753F0078A412BBF3C4
:10B2650000000000789512BBF300000000C21678BC
:10B2750087E6FFEF700302B5427887E6FF7E00EEB2
:10B285005531FEEF5532FF7887E6FD7C00EF6D7096
:10B2950002EE6C7004D2068002C206788DE6FF7E4F
:10B2A50000EE5531FEEF5532FF788DE6FD7C00EF5F
:10B2B5006D7002EE6C7004D2078002C20720110483
:10B2C5007F0180027F003006047E0180027E00EE51
:10B2D5005FFFEF700302B35C30073F30101A78A0B0
:10B2E500E6FE08E6FFD3EF9400EE9400406978A1EE
:10B2F500E61618700116805F78A0E6FE08E6FFE402
:10B30500FCFD7BFF7AFF79007800D312BB754047BF
:10B3150078A106E618700106803D30102278A0E677
:10B32500FE08E6FFE4FCFD7BFF7AFF79007800D399
:10B3350012BB75402278A106E618700106801878C0
:10B34500A0E6FE08E6FFD3EF9400EE9400400878EF
:10B35500A1E616187001163011047F0180027F00E6
:10B365002006047E0180027E00EE5FFFEF7003027F
:10B37500B40630073F30102278A0E6FE08E6FFE469
:10B38500FCFD7BFF7AFF79007800D312BB75407115
:10B3950078A106E618700106806778A0E6FE08E643
:10B3A500FFD3EF9400EE9400405778A1E61618708D
:10B3B5000116804D30102A78A0E6FE08E6FFD3EF8F
:10B3C5009400EE9400403A78A0E6FE08E6FFD3EF3D
:10B3D5009400EE9400402A78A1E6161870011680B4
:10B3E5002078A0E6FE08E6FFE4FCFD7BFF7AFF7906
:10B3F500007800D312BB75400878A106E6187001E5
:10B40500062012047F0180027F003007047E018040
:10B41500027E00EE5FFFEF700302B4A030063F30FE
:10B42500102278A0E6FE08E6FFE4FCFD7BFF7AFF2C
:10B4350079007800D312BB75406178A106E61870D3
:10B445000106805778A0E6FE08E6FFD3EF9400EEEC
:10B455009400404778A1E61618700116803D30101B
:10B465001A78A0E6FE08E6FFD3EF9400EE940040BC
:10B475002A78A1E61618700116802078A0E6FE0845
:10B48500E6FFE4FCFD7BFF7AFF79007800D312BB71
:10B4950075400878A106E6187001063012047F0190
:10B4A50080027F002007047E0180027E00EE5FFFA0
:10B4B500EF700302B53A30063F30101A78A0E6FE69
:10B4C50008E6FFD3EF9400EE9400406978A1E616F4
:10B4D50018700116805F78A0E6FE08E6FFE4FCFD23
:10B4E5007BFF7AFF79007800D312BB75404778A1BE
:10B4F50006E618700106803D30102278A0E6FE08A9
:10B50500E6FFE4FCFD7BFF7AFF79007800D312BBF0
:10B5150075402278A106E618700106801878A0E625
:10B52500FE08E6FFD3EF9400EE9400400878A1E60C
:10B535001618700116A2069211A2079212789106AA
:10B54500E61870010630003B7890E6FE08E6FFEF4E
:10B5550064907003EE6401704378E612BBCE9002EE
:10B565009AE0FEA3E0FFE4FCFDEB2FFFEA3EFEE9D7
:10B575003DFDE83CFC78E612BBDB7890760008766A
:10B585000080197890E6FE08E6FFD3EF94A0EE94CC
:10B595000F400978907600087600D20DE5456004E5
:10B5A500154580069002997466F0053AE534B40AAB
:10B5B500047F0180027F00E534B405047E0180022A
:10B5C5007E00EE4FFFE53AD3940240047E018002EF
:10B5D5007E00EE5FFFEF600AC2B6753405754AFF5F
:10B5E500D2AC789EE6FFEFC394015011E534B41454
:10B5F50014753428789D760175997E8008E534B4F4
:10B605001403789E16D0D0D082D083D0F0D0E0320B
:0300330002C344C1
:10C34400C0E0C0F0C083C082C0D0E8C0E0E9C0E073
:10C35400EAC0E0EBC0E0ECC0E0EDC0E0EEC0E0EF2E
:02C36400C0E037
:10C366000548E54870020547D3E548949AE54794A1
:10C37600024017754700754800A202B392023008C2
:10C3860009300204D2A48002C2A420DF0302C53F02
:10C39600C2DFAF53EFC454F02489F582E43406F5C6
:10C3A60083E0FFEFB4FF087524007525008014AF05
:10C3B600DB7E00EF7F00FEADDA7C00EE4CF524EF6D
:10C3C6004DF52575DB0075DA00AF53EF25E025E066
:10C3D60024DCF582E43400F583C083C082E0F8A350
:10C3E600E0F9A3E0FAA3E0FBAE24AF25E4FCFDEB05
:10C3F6002FFFEA3EFEE93DFDE83CFCD082D08312E9
:10C40600BBE7E54BB40445AF53EF25E025E024DC5C
:10C41600F582E43400F583E0FCA3E0FDA3E0FEA38F
:10C42600E0FFAB53EB25E025E02430F582E434024F
:10C43600F58312BBE7AF53EF25E025E024DCF58258
:10C44600E43400F58312BC0C000000000553E553EC
:10C4560064077076755300E54B6404706B754B008A
:10C4660090024CE4F0754901E549C39409504C909B
:10C47600024CE0FFEFC313FF90024CEFF0AF49EF21
:10C4860025E024A5F582E434C7F583E493FE740120
:10C4960093FFEF54A8FFE5A05457FEEE4FF5A0E535
:10C4A600805404FFEFC43354E0FF90024CE0FEEFEB
:10C4B6004EFF90024CEFF0054980AD90024CE0FF34
:10C4C600EFF4FF90024CEFF0054BAF53EFC454F07E
:10C4D6002489F582E43406F583E0FF9002A3EFF0A9
:10C4E6009002A3E0FFEFB4FF069002A37405F0905C
:10C4F60002A3E0FFEF5403FFEF75F012A42481F5C9
:10C5060082E434C7F583C083C0829002A3E0FFEFC4
:10C516001313543FFFD082D08375F002EF12BC3D57
:10C52600E493F524740193F52575D403E524FF7E81
:09C5360000EF4440F5E675D12A3E
:10C53F00D0E0FFD0E0FED0E0FDD0E0FCD0E0FBD0BB
:10C54F00E0FAD0E0F9D0E0F8D0D0D082D083D0F0AC
:03C55F00D0E032F7
:03002300029975CA
:0D997500C0E0C0F0C083C082C0D075D0102B
:1099820020980302A3E8789FA699C29830B60302F2
:10999200A563753A00E5346405600302A563054AD0
:1099A200E54AD39422400675340A02A563E54A6467
:1099B200027034789FE6FFEFD3940640047F018063
:1099C200027F00789FE6FEEEC3942450047E01805D
:1099D200027E00EE5FFFEF6008789FE6FF8F4C800B
:1099E2000675340A02A563E54A700F789FE6FFEF19
:1099F200647E600675340A02A563E54A6401600369
:109A0200029AC3789FE6FFEF654660047F018002F9
:109A12007F00789FE6FEEE643F60047E0180027E56
:109A220000EF5EFF78ACE6FE789FE6FDED6E600427
:109A32007E0180027E00EE5FFFEF7003029AC37820
:109A42009FE6FFEFB4FF0675340A02A56390027F1A
:109A5200E0FF789FE6FEEE6F60047F0180027F00E8
:109A6200900279E0FE789FE6FDED6E60047E018053
:109A7200027E00EE4FFF900285E0FE789FE6FDED4C
:109A82006E60047E0180027E00EE4FFF90028BE04A
:109A9200FE789FE6FDED6E60047E0180027E00EEA0
:109AA2004FFF900291E0FE789FE6FDED6E60047E2E
:109AB2000180027E00EE4FFFEF600675340A02A5B8
:109AC20063789FE6FFAE4A74802EF582E43400F597
:109AD20083EFF0E54A654C70047F0180027F00E568
:109AE2004AD3940640047E0180027E00EE5FFFEFBF
:109AF200700302A3E87534327541FF7542FFE53009
:109B020064FF7038752800E528C3954C4003029B1A
:109B12009EE528B40106754100754200AF287480A5
:109B22002FF582E43400F583E0FF7E00EF2542F555
:109B320042EE3541F541052880CD8060752801E56A
:099B42004C14FFE528C39F5053A9
:109B4B00AF2874802FF582E43400F583E0FF7E00AC
:109B5B008E268F277E00AF420527E527AC267002A5
:109B6B00052614FDEE6CFEEF6DFFEF25E0FFEE33E7
:109B7B00FE74422FF58274C13EF583E493FC7401AD
:0F9B8B0093FDE541FF7E00EE6CF541EF6DF54275
:109B9A00052880A3E541FF7E00AD4A747F2DF5823A
:109BAA00E43400F583E0FD7C00EF6D7002EE6C702A
:109BBA00047F0180027F00E530B4FF047E01800249
:109BCA007E00EE4FFF7C00AD42789FE6FEEEFB7A08
:109BDA0000ED6B7002EC6A70047E0180027E00EE7A
:109BEA005FFFEF700302A3E2900085E0FF8F33E589
:109BFA0033D3941C400675340A02A56378ACE6FF99
:109C0A00900081E0FEEE6F70047F0180027F007891
:109C1A00ACE6FEEE64FF60047E0180027E00EE5F29
:079C2A00FFEF7003029CAF85
:109C3100900229E0FEA3E0FF74802FF582E4340056
:109C4100F583E0FF7E008E7D8F7EE57E757E00F5DB
:109C51007D900229E0FEA3E0FF74812FF582E434B8
:109C610000F583E0FF7E00EF257EF57EEE357DF584
:109C71007D900227E0FF74802FF582E43400F583A4
:109C8100E0FFEF13921FA21FB39283900228E0FF1F
:109C910074802FF582E43400F583E0FFEF13921F07
:059CA100A21FB392B701
:109CA60075340A02A56302A3E8900081E0FFEF6520
:109CB6004670047F0180027F00900081E0FEEEB4D2
:109CC6003F047E0180027E00EF4EFFEF7003029F8D
:109CD60025752800E528C3954C5020AF2874802FA1
:109CE600F582E43400F583E0FFAE28744E2EF5824B
:109CF600E43402F583EFF0052880D9900081E0FF77
:109D0600EF4480FF90024FEFF0900251E0FFEF54D6
:109D160003F540900251E0FFEF54E0FFEF700302BD
:109D26009DE2E5336418600DE533D394164006755D
:109D3600340A02A563900083E0FFEF541CFFEF6036
:109D46000675340A02A563900251E0FFEF541CFF2A
:109D5600EF600675340A02A563900251E0FFEF54E6
:109D6600E0FF7E008E2C8F2DE52DAE2C7803C333BD
:109D7600CE33CED8F9F52D8E2C900252E0FF7E0020
:109D8600EF252DFFEE352CFEEF2400F52DEE34FFEA
:109D9600F52CE540B403047F0180027F00E540B462
:109DA60001047E0180027E00EE4FFFEF6027E54C46
:109DB60024F9FFEF653360047F0180027F002001F4
:109DC600047E0180027E00EF4EFFEF600675340AC6
:109DD60002A563D20FE540B40202D20E900251E012
:109DE600FFEF54E0FFEF6003029EB1900252E0FFE6
:109DF600EF7063A219E433FFE540B402047E0180EC
:109E0600027E00EE5FFFEF604D752800E528C395E2
:109E1600335020AF2874C02FF582E43400F583E078
:109E2600FFAE2874462EF582E43400F583EFF00584
:109E36002880D9D2B674062533F5337894E6FF78B0
:109E460094E6FEEE2FFF789EEFF6753414E53304A4
:109E5600FF900042EFF0900251E0FFEFB403047F61
:109E66000180027F00900251E0FEEEB401047E0103
:109E760080027E00EE4FFF900251E0FEEEB4020437
:109E86007E0180027E00EE4FFF900252E0FEEEB4AD
:109E960020047E0180027E00EE5FFFEF600DE54C40
:109EA60024F9FFEF6533700312A56E900251E0FFAF
:109EB600EFB405047F0180027F00E54060047E0167
:109EC60080027E00EE5FFF900252E0FEEEB41004C8
:109ED6007E0180027E00EE5FFF900253E0FEEEB44C
:109EE60001047E0180027E00EE5FFFEF600BD21A56
:109EF600C2AFD2C075C002D2AFE534B432047F011E
:109F060080027F00200F047E0180027E00EE5FFF4C
:109F1600EF700302A3E875340A02A56302A3E89072
:109F26000279E0FF900081E0FEEE6F6003029FF68B
:109F360090007BE4F0A3E4F090027AE0FF74802FB7
:109F4600F582E43400F583E0FF7E0090007BEEF0BE
:109F5600A3EFF090007BE0FEA3E0FFEF7F00FE9012
:109F6600007BEEF0A3EFF090027AE0FF74812FF50C
:109F760082E43400F583E0FF7E0090007CE02FF061
:109F860090007BE03EF090027BE0FEA3E0FF9000B5
:109F96007BE0FCA3E0FDD3ED9FEC9E40109002A772
:109FA600E004F070069002A6E004F0800E9002D461
:109FB600E004F070069002D3E004F090027DE0FE2B
:109FC600A3E0FF90007BE0FCA3E0FDD3ED9FEC9EB9
:109FD60040109002A9E004F070069002A8E004F098
:109FE600800E9002D6E004F070069002D5E004F0F0
:109FF60090027FE0FF900081E0FEEE6F600302A01A
:01A00600C792
:10A0070090007BE4F0A3E4F0900280E0FF74802FDF
:10A01700F582E43400F583E0FF7E0090007BEEF0EC
:10A02700A3EFF090007BE0FEA3E0FFEF7F00FE9040
:10A03700007BEEF0A3EFF0900280E0FF74812FF534
:10A0470082E43400F583E0FF7E0090007CE02FF08F
:10A0570090007BE03EF0900281E0FEA3E0FF9000DD
:10A067007BE0FCA3E0FDD3ED9FEC9E40109002A7A0
:10A07700E004F070069002A6E004F0800E9002D48F
:10A08700E004F070069002D3E004F0900283E0FE53
:10A09700A3E0FF90007BE0FCA3E0FDD3ED9FEC9EE7
:10A0A70040109002A9E004F070069002A8E004F0C6
:10A0B700800E9002D6E004F070069002D5E004F01E
:10A0C700900285E0FF900081E0FEEE6F600302A141
:01A0D70098F0
:10A0D80090007BE4F0A3E4F0900286E0FF74802F08
:10A0E800F582E43400F583E0FF7E0090007BEEF01B
:10A0F800A3EFF090007BE0FEA3E0FFEF7F00FE906F
:10A10800007BEEF0A3EFF0900286E0FF74812FF55C
:10A1180082E43400F583E0FF7E0090007CE02FF0BD
:10A1280090007BE03EF0900287E0FEA3E0FF900005
:10A138007BE0FCA3E0FDD3ED9FEC9E40109002A7CE
:10A14800E004F070069002A6E004F0800E9002D4BD
:10A15800E004F070069002D3E004F0900289E0FE7B
:10A16800A3E0FF90007BE0FCA3E0FDD3ED9FEC9E15
:10A1780040109002A9E004F070069002A8E004F0F4
:10A18800800E9002D6E004F070069002D5E004F04C
:10A1980090028BE0FF900081E0FEEE6F600302A268
:01A1A800694D
:10A1A90090007BE4F0A3E4F090028CE0FF74802F30
:10A1B900F582E43400F583E0FF7E0090007BEEF049
:10A1C900A3EFF090007BE0FEA3E0FFEF7F00FE909D
:10A1D900007BEEF0A3EFF090028CE0FF74812FF585
:10A1E90082E43400F583E0FF7E0090007CE02FF0EC
:10A1F90090007BE03EF090028DE0FEA3E0FF90002E
:10A209007BE0FCA3E0FDD3ED9FEC9E40109002A7FC
:10A21900E004F070069002A6E004F0800E9002D4EB
:10A22900E004F070069002D3E004F090028FE0FEA3
:10A23900A3E0FF90007BE0FCA3E0FDD3ED9FEC9E43
:10A2490040109002A9E004F070069002A8E004F022
:10A25900800E9002D6E004F070069002D5E004F07A
:10A26900900291E0FF900081E0FEEE6F600302A38F
:01A279003AAA
:10A27A0090007BE4F0A3E4F0900292E0FF74802F58
:10A28A00F582E43400F583E0FF7E0090007BEEF077
:10A29A00A3EFF090007BE0FEA3E0FFEF7F00FE90CB
:10A2AA00007BEEF0A3EFF0900292E0FF74812FF5AD
:10A2BA0082E43400F583E0FF7E0090007CE02FF01A
:10A2CA0090007BE03EF0900293E0FEA3E0FF900056
:10A2DA007BE0FCA3E0FDD3ED9FEC9E40109002A72B
:10A2EA00E004F070069002A6E004F0800E9002D41A
:10A2FA00E004F070069002D3E004F0900295E0FECC
:10A30A00A3E0FF90007BE0FCA3E0FDD3ED9FEC9E71
:10A31A0040109002A9E004F070069002A8E004F050
:10A32A00800E9002D6E004F070069002D5E004F0A8
:10A33A00900297E0FF7E009002A6E0FCA3E0FDD326
:10A34A00ED9FEC9E4012C2839002A6E4F0A3E4F0D3
:10A35A009002D3E4F0A3E4F090022CE0FF7E009098
:10A36A0002D3E0FCA3E0FDD3ED9FEC9E4012D28322
:10A37A009002A6E4F0A3E4F09002D3E4F0A3E4F0A0
:10A38A00900298E0FF7E009002A8E0FCA3E0FDD3D3
:10A39A00ED9FEC9E4012C2B79002A8E4F0A3E4F04D
:10A3AA009002D5E4F0A3E4F090022DE0FF7E009045
:10A3BA0002D5E0FCA3E0FDD3ED9FEC9E4012D2B79C
:10A3CA009002A8E4F0A3E4F09002D5E4F0A3E4F04C
:10A3DA0075340A02A563800675340A02A5632099BA
:10A3EA000302A563C29920B60675340A02A563E57D
:10A3FA00346428600302A560789DE6FFEFD39405D4
:10A40A005056789DE6FFEFB4020C900042E0FF78C8
:10A41A009FEFF602A4F0789DE6FFEFB40123E5462C
:10A42A004480FF789FEFF678927600087600E53050
:10A43A0064FF700302A4F0789276FF0876FF02A404
:10A44A00F0789DE6FF744E2FF582E43402F583E03E
:10A45A00FF789FEFF602A4F0789DE6FFEF65337070
:10A46A001CE530B4FF06789FA63B807A7892E6FE18
:10A47A0008E6FFEEFF7E00789FEFF68069AF337E35
:10A48A0000EF2401FFEE3400FE789DE6FD7C00ED2E
:10A49A006F7002EC6E700D7892E6FE08E6FF789F08
:10A4AA00EFF68042AF337E00EF2401FFEE3400FE68
:10A4BA00789DE6FD7C00D3ED9FEE6480F8EC648025
:10A4CA0098400F7892760008760075340A02A563E0
:10A4DA008014789DE6FF74402FF582E43400F583FA
:10A4EA00E0FF789FEFF6789FE6FF8F99E530B4FF9B
:10A4FA0011789FE6FF7E007893EF26F618EE36F67F
:10A50A00804F789DE6FFEF653360467892E6FE0855
:10A51A00E6FF7E00789FE606FD7C00EE6CFEEF6D9E
:10A52A00FFEF25E0FFEE33FE74422FF58274C13E41
:10A53A00F583E493FC740193FD7892E6FE08E6FF46
:10A54A00EEFF7E00EE6CFEEF6DFF7892EEF608EFFE
:09A55A00F6789D06800375340AB1
:0BA56300D0D0D082D083D0F0D0E03206
:10A56E00900253E0FFEFB402047F0180027F00905F
:10A57E000250E0FEEEB409047E0180027E00EE5F22
:10A58E00FF900254E0FEEEB4A0047E0180027E0035
:10A59E00EE5FFF900255E0FEEEB401047E018002F4
:10A5AE007E00EE5FFFEF602AD201900254E0FF9032
:10A5BE000046EFF0900255E0FF900047EFF0D2B664
:10A5CE007894E6FF7894E6FEEE2FFF789EEFF67510
:10A5DE003414900253E0FFEFB404047F0180027F35
:10A5EE0000900250E0FEEEB40B047E0180027E006D
:10A5FE00EE5FFF900254E0FEEEB4C1047E018002D5
:0BA60E007E00EE5FFFEF700302A6AFBE
:10A61900752900900255E0FF8F29E52964407040B3
:10A6290090029FE0FEA3E0FF7F00EF4E70329002A0
:10A639009FE0FEA3E0FFEE4408FE90029FEEF0A328
:10A64900EFF0900256E0FF7E00EF757C00F57B90FD
:10A659000257E0FF7E00EF257CF57CEE357BF57B2C
:10A66900E5296450704090029FE0FEA3E0FF7F005F
:10A67900EF4E703290029FE0FEA3E0FFEE4410FE21
:10A6890090029FEEF0A3EFF0900256E0FF7E00EFFC
:10A69900757C00F57B900257E0FF7E00EF257CF585
:06A6A9007CEE357BF57B21
:10A6AF00900255E0FFEFB434047F0180027F0090E9
:10A6BF000254E0FEEEB4B2047E0180027E00EE5F33
:10A6CF00FFEF6062900254E0FF900046EFF09002BF
:10A6DF0055E0FF900047EFF090C342E493FE740102
:10A6EF0093FFEEFF7E00900048EFF090C342E4939B
:10A6FF00FE740193FF900049EFF090004AE534F0AB
:10A70F0090004BE5B7F090004CE581F0D2B678940D
:10A71F00E6FF7894E6FEEE2FFF789EEFF690025359
:10A72F007407F0753414900254E0FFEFB4B0047F57
:10A73F000180027F00900253E0FEEEB402047E011E
:10A74F0080027E00EE5FFF900255E0FEEE64FF6038
:10A75F00047E0180027E00EE5FFFEF605C90025589
:10A76F00E0FFEFB4010E9002A0E0FFEF4401FF9075
:10A77F0002A0EFF0900255E0FFEFB4020E9002A09E
:10A78F00E0FFEF4402FF9002A0EFF0900255E0FFD0
:10A79F00EFB4030E9002A0E0FFEF4404FF9002A07D
:10A7AF00EFF0900255E0FFEFB4200E9002A0E0FF13
:10A7BF00EF4420FF9002A0EFF0900254E0FFEF640F
:10A7CF00B5600302AE11900253E0FFEFB40A047FAD
:10A7DF000180027F00E540B401047E0180027E000B
:10A7EF00EE5FFF900250E0FEEEB411047E01800296
:10A7FF007E00EE5FFFEF700302A98C900257E0FF1F
:10A80F008FA3900258E0FF8FA4900259E0FF8FA50D
:10A81F0090025574D0F0900256E4F0C2EF90022BE4
:10A82F007402F090022BE014F090022BE0FFEF7017
:10A83F00F2800280EEC2ED78A3760778A3E6FFEFF1
:10A84F00C39411400302A942753500E535C394083E
:10A85F00507778A3E6FF744E2FF582E43402F58328
:10A86F00E0FFEF20E704C2EF8002D2EF90022B74DB
:10A87F0002F090022BE014F090022BE0FFEF70F249
:10A88F00800280EED2ED30EDFD800280F990022B38
:10A89F007402F090022BE014F090022BE0FFEF70A7
:10A8AF00F2800280EEC2EDE5356407601678A3E60C
:10A8BF00FF744E2FF582E43402F583E0FFEF25E0BD
:10A8CF00FFEFF0C2EF0535808290022B7402F090FB
:10A8DF00022BE014F090022BE0FFEF70F280028069
:10A8EF00EED2EFC2EED2ED30EDFD800280F9900294
:10A8FF002B74C8F090022BE014F090022BE0FFEFC6
:10A90F0070047F0180027F0020EC047E0180027EB4
:10A91F0000EE4FFFEF60DD800280D990022BE0FF49
:10A92F00EF7006900272E004F0D2EEC2ED78A3064B
:10A93F0002A84A90022B7402F090022BE014F090C0
:10A94F00022BE0FFEF70F2800280EED2ED30EDFDD2
:10A95F00800280F990022B7402F090022BE014F029
:10A96F0090022BE0FFEF70F2800280EED2EF9002A8
:10A97F00537402F07540029002507409F090025324
:10A98F00E0FFEFB402047F0180027F00E540B402D4
:10A99F00047E0180027E00EE5FFF900250E0FEEE2B
:10A9AF00B409047E0180027E00EE5FFFEF700302A8
:10A9BF00AE1190003F74D0F0C2EF90022B7402F0F2
:10A9CF0090022BE014F090022BE0FFEF70F2800268
:10A9DF0080EEC2ED78A3760078A3E6FFEFC3940272
:10A9EF00400302AACB753500E535C39408505E903D
:10A9FF00003FE0FFEF20E704C2EF8002D2EF9002AA
:10AA0F002B7402F090022BE014F090022BE0FFEF7A
:10AA1F0070F2800280EED2ED30EDFD800280F99071
:10AA2F00022B7402F090022BE014F090022BE0FF47
:10AA3F00EF70F2800280EEC2EDC2EF90003FE0FFB8
:10AA4F00EF25E0FF90003FEFF00535809B90022B44
:10AA5F007402F090022BE014F090022BE0FFEF70E5
:10AA6F00F2800280EEC2EED2EDD2EF30EDFD800229
:10AA7F0080F990022B74C8F090022BE014F0900232
:10AA8F002BE0FFEF70047F0180027F0020EC047E3B
:10AA9F000180027E00EE4FFFEF60DD800280D990D3
:10AAAF00022BE0FFEF7006900272E004F0D2EEC2CC
:10AABF00ED90003FE4F078A30602A9E790022B7413
:10AACF0002F090022BE014F090022BE0FFEF70F2F7
:10AADF00800280EED2ED30EDFD800280F990022BE6
:10AAEF007402F090022BE014F090022BE0FFEF7055
:10AAFF00F2800280EED2EF90022B7402F090022BC4
:10AB0F00E014F090022BE0FFEF70F2800280EE90E5
:10AB1F00003F74D1F090022B7402F090022BE014DE
:10AB2F00F090022BE0FFEF70F2800280EEC2EF9008
:10AB3F00022B7402F090022BE014F090022BE0FF36
:10AB4F00EF70F2800280EEC2ED90022B7402F09053
:10AB5F00022BE014F090022BE0FFEF70F2800280E6
:10AB6F00EE753500E535C39408505E90003FE0FF69
:10AB7F00EF20E704C2EF8002D2EF90022B7402F0B5
:10AB8F0090022BE014F090022BE0FFEF70F28002A6
:10AB9F0080EED2ED90022B7402F030EDFD8002803A
:10ABAF00F990022BE014F090022BE0FFEF70F2808F
:10ABBF000280EEC2EDC2EF90003FE0FFEF25E0FF15
:10ABCF0090003FEFF00535809B90022B7402F090C0
:10ABDF00022BE014F090022BE0FFEF70F280028066
:10ABEF00EEC2EED2EFD2ED90022B7402F030EDFDFB
:10ABFF00800280F990022BE014F090022BE0FFEF1F
:10AC0F0070F2800280EE90022B74C8F090022BE05D
:10AC1F0014F090022BE0FFEF70047F0180027F00A1
:10AC2F0020EC047E0180027E00EE4FFFEF60DD809E
:10AC3F000280D990022BE0FFEF7006900272E004C1
:10AC4F00F0D2EEC2ED90022B7402F090022BE014C2
:10AC5F00F090022BE0FFEF70F2800280EE78A37687
:10AC6F000078A3E6FFEFC39408400302AD7C75356F
:10AC7F0000E535C39408400302AD2BD2EFC2EED2EC
:10AC8F00ED30EDFD800280F990022B7402F09002FE
:10AC9F002BE014F090022BE0FFEF70F2800280EEB9
:10ACAF0020EC2E78A3E6FF74492FF582E43400F5EB
:10ACBF0083E0FFEF25E0FFEFF078A3E6FF74492F65
:10ACCF00F582E43400F583E0FFEF54FEFFEFF080F0
:10ACDF002C78A3E6FF74492FF582E43400F583E066
:10ACEF00FFEF25E0FFEFF078A3E6FF74492FF58221
:10ACFF00E43400F583E0FFEF4401FFEFF0C2ED9085
:10AD0F00022B7402F090022BE014F090022BE0FF64
:10AD1F00EF70F2800280EE053502AC80C2EF78A3AF
:10AD2F00E6FFEFB40702D2EFD2EED2ED30EDFD80A9
:10AD3F000280F990022B7402F090022BE014F09035
:10AD4F00022BE0FFEF70F2800280EEC2EDC2EE90B8
:10AD5F00022B7402F090022BE014F090022BE0FF14
:10AD6F00EF70F2800280EE78A30602AC70D2EE9004
:10AD7F00022B7402F090022BE014F090022BE0FFF4
:10AD8F00EF70F2800280EEC2EF90022B7402F0900F
:10AD9F00022BE014F090022BE0FFEF70F2800280A4
:10ADAF00EED2ED30EDFD800280F990022B7402F0AF
:10ADBF0090022BE014F090022BE0FFEF70F2800274
:10ADCF0080EED2EF900254E0FF900046EFF0900239
:10ADDF0055E0FF900047EFF0900256E0FF900048DB
:10ADEF00EFF09000457411F0900253740AF0D2B650
:10ADFF007894E6FF7894E6FEEE2FFF789EEFF675D7
:10AE0F003414900253E0FFEF2406F533E53304FFCB
:05AE1F00900042EFF07D
:01AE2400220B
:058B1F00C0D075D0007C
:108B240090003CE4F090003DE4F0C2ACC28EC2AFD1
:108B34007580FF75A040757D00757E0075AF81203E
:108B4400B208752E00752F0080F575A80075B80859
:108B5400C2AF30C209C2AFD2C075C010C2C2C2A473
:108B6400789512BBF300000000789912BBF3000063
:108B7400000078A412BBF30000000078A812BBF335
:108B840000000000C216C21875360075370075382B
:108B9400007539007531007532FF75430075440066
:108BA400753C00753D00753E00753F00C201C2135F
:108BB400C214C20D78817600087600787F760008AA
:108BC400760078907600087600752E00752F009058
:108BD4000273E4F0753400C219D20590029AE4F0ED
:108BE400A3E4F0789D7601C2B612BC6F75C7007518
:108BF400C60775B90175C7007894A6BD7894E6FFD9
:108C0400EFD3943F40047894763F7894E6FF7894C9
:108C1400EF26F67894E6FFEF700478947601E5BFCA
:108C2400B4CC0585BF3080037530FFE5BCB464085F
:108C3400754D01754E018006754DFF754EFF75C764
:108C44000075C60675B90175C70085BC46E546B40E
:108C5400FF0675463F754601C20AE5BE7002D20A98
:108C6400C20BE5BFB40402D20B75C70075C61475F8
:108C7400B90175C700900297E5BCF090022CE5BDE0
:108C8400F090022CE0FF900297E0FEEEC39F400CB0
:108C940090022C740AF09002977403F0900298E505
:108CA400BEF090022DE5BFF090022DE0FF900298F7
:108CB400E0FEEEC39F400C90022D740AF0900298DF
:108CC4007403F075C70075C68075B90175C7009047
:108CD4000226E5BCF0900226E0FFEF64FF70030279
:028CE4008DB74A
:108CE60090003EE4F0900226E0FF78ACEFF69000AC
:108CF6003E7401F090003EE0FFEFC3940D40030286
:108D06008DB790003EE0FF7E10EF8EF0A4FFAEF030
:108D1600EF2400FFEE3402FEEF7802CEC313CE132B
:108D2600D8F9FFEEFF7E00EF5403F5C790003EE052
:108D3600FF7E10EF8EF0A4FFAEF0EF2400FFEE34BE
:108D460002FEEF7802CEC313CE13D8F9FF8FC67595
:108D5600B90175C700AFBCEF12BC498D6E018D819C
:108D6600028D94CC00008DAEE5BD131313541FFF86
:108D7600EF2407FF900227EFF0802DE5BD131313B4
:108D8600541FFFEF2407FF900228EFF0801AE5BD7D
:108D9600131313541FFF7E00EF2406FFEE3400FE6C
:108DA600900229EEF0A3EFF090003EE004F0028C72
:018DB600FAC2
:108DB700753500E535C394054003028F44AF357E12
:108DC70010EF8EF0A4FFAEF0EF2414FFEE3402FE96
:108DD700EF7802CEC313CE13D8F9FFEEFF7E00EF74
:108DE7005403F5C7AF357E10EF8EF0A4FFAEF0EF5A
:108DF7002414FFEE3402FEEF7802CEC313CE13D84D
:108E0700F9FF8FC675B90175C700E5BC64FF70032C
:108E1700028F3FAF35EF75F006A42479F582E4346D
:108E270002F583E5BCF0AF35EF75F006A4247AF5BB
:108E370082E43402F583E5BDF0AFBE7E00AD35EDCB
:108E470075F006A4247BF582E43402F583EEF0A3E3
:108E5700EFF0AF35EF75F006A4247BF582E434021A
:108E6700F583C083C082E0FEA3E0FFEF7F00FED062
:108E770082D083EEF0A3EFF0AFBF7E00AD35ED7586
:108E8700F006A4247BF582E43402F583EE8FF0121A
:108E9700BA34AF357E10EF8EF0A4FFAEF0EF241892
:108EA700FFEE3402FEEF7802CEC313CE13D8F9FFDC
:108EB700EEFF7E00EF5403F5C7AF357E10EF8EF05F
:108EC700A4FFAEF0EF2418FFEE3402FEEF7802CED7
:108ED700C313CE13D8F9FF8FC675B90175C700AF95
:108EE700BC7E00AD35ED75F006A4247DF582E43433
:108EF70002F583EEF0A3EFF0AF35EF75F006A4248B
:108F07007DF582E43402F583C083C082E0FEA3E0EE
:108F1700FFEF7F00FED082D083EEF0A3EFF0AFBD6E
:108F27007E00AD35ED75F006A4247DF582E43402AC
:108F3700F583EE8FF012BA340535028DBA90029F91
:108F4700E4F0A3E4F0758DF3758BD290029DE4F005
:108F5700A3E4F0753500E535C3940D400302909303
:108F6700AF35EFC454F02480F582E43406F583E08E
:108F7700FFEF64FF700302908EAF35EFC454F02407
:108F870081F582E43406F583E0FFEFB48440AF3522
:108F9700EFC454F0248BF582E43406F583E0FFE454
:108FA700FCFDFE8F578E568D558C54AF57AE56AD80
:108FB70055AC547B907A017900780012BA4A8F57E2
:108FC7008E568D558C54E54DB4010385354DAF351F
:108FD700EFC454F02481F582E43406F583E0FFEF13
:108FE700B48840AF35EFC454F0248BF582E43406DF
:108FF700F583E0FFE4FCFDFE8F528E518D508C4FC0
:10900700AF52AE51AD50AC4F7B907A0179007800EA
:1090170012BA4A8F528E518D508C4FE54EB40103D0
:1090270085354EAF35EFC454F02481F582E434061C
:10903700F583E0FFEFB4601BAF35EFC454F024872E
:10904700F582E43406F583E0FF7E0090029DEEF0A2
:10905700A3EFF0AF35EFC454F02487F582E434066C
:10906700F583E0FFEF540FFFEFB4051BAF35EFC4F7
:1090770054F02482F582E43406F583E0FFEF30E410
:1090870004D2008002C2000535028F5D753500E508
:1090970035C3940D5016AF35EFC454F0248BF582C9
:1090A700E43406F58374FFF0053580E378A3760092
:1090B700753500E535C3940D400302916AAF35EF6E
:1090C700C454F02480F582E43406F583E0FFEF64AE
:1090D700FF7003029165AF35EFC454F0248BF5821E
:1090E700E43406F58374FFF0788E7600788EE6FF19
:1090F700EFC394155068788EE6FFEF25E024B4F5AA
:1091070082E43407F583E0FFEF64FF604CAF35EF8F
:10911700C454F02480F582E43406F583E0FF788EAA
:10912700E6FEEE25E024B4F582E43407F583E0FE9D
:10913700EE6F7025788EE6FFEF25E024B5F582E423
:109147003407F583E0FFAE35EEC454F0248BF58287
:10915700E43406F583EFF08005788E06808E0535BA
:109167000290BAC210127A3EAF807E008E318F32E3
:109177007887E6FF7E00EE5531FEEF5532FF7887A0
:10918700E6FD7C00EF6D7002EE6C7004D206800283
:10919700C206788DE6FF7E00EE5531FEEF5532FFB1
:1091A700788DE6FD7C00EF6D7002EE6C7004D207DF
:1091B7008002C207A2069211A2079212D2177F005D
:1091C700120036C21790024CE4F090022EE4F078B9
:1091D700A0E6FE08E6FFE4FCFD9002D912BBE7C259
:1091E7008E758BD2758DF3C28FD2ABD28ED2AFD2A2
:1091F700BCD2AEAE2EAF2FE4FCFD7BE87AFD790042
:109207007800D312BB75400A052FE52F7002052E93
:1092170080E1753405D2AC201A1DE5D770047F01B3
:1092270080027F00EF30E60690029CE004F0C2AFB8
:10923700D2C075C032D2AF90029CE0FFEFD39464E6
:10924700400690024D743CF0900272E0FFEFD39419
:1092570064400690024D740AF0900270E0FFEFD36D
:109267009464400590024DE4F0900225E004F0700C
:1092770006900224E004F090024DE0FF7E00900289
:1092870024E0FCA3E0FDC3ED9FEC9E4013300208F1
:10929700300805A2A4B392A4900224E4F0A3E4F05A
:1092A700900273E0FFEF640A600302934F75452550
:1092B700753500E535C394075079AF35EF25E025BF
:1092C700E02430F582E43402F583E0FCA3E0FDA35B
:1092D700E0FEA3E0FF7BF07AFF790F7800D312BBA3
:1092E7008B4035AF35EF25E025E02430F582E434B7
:1092F70002F583E0FCA3E0FDA3E0FEA3E0FF780214
:1093070012BB9CAB35EB25E025E024C0F582E434A5
:1093170001F58312BBE78017AF35EF25E025E02481
:10932700C0F582E43401F58312BC0C0000FFFF0591
:10933700358080753500E535C3940B500EAF351277
:109347000036053580F0800375452530B208900258
:1093570073E004F08006900270E004F0200E030230
:0293670094DC94
:10936900C2ACA2B2E433FFE540B402047E0180023C
:109379007E00EE5FFFEF70030294D5752A00E52A9F
:10938900C3953340030294B0E52C1313543FFF7E79
:10939900008FC7E52DAE2C7802CEC313CE13D8F9B2
:1093A900FF8FC675B9017E00E52D5403FFEF4E709E
:1093B900047F0180027F00E52AC3953350047E01B2
:1093C90080027E00EE5FFFEF6019AF2A74462FF529
:1093D90082E43400F583E5BCF0052DE52D70020526
:1093E9002C052A7E00E52D5403FFEF64014E70041D
:1093F9007F0180027F00E52AC3953350047E0180F6
:10940900027E00EE5FFFEF6019AF2A74462FF582E6
:10941900E43400F583E5BDF0052DE52D7002052C3A
:10942900052A7E00E52D5403FFEF64024E70047F88
:109439000180027F00E52AC3953350047E01800232
:109449007E00EE5FFFEF6019AF2A74462FF582E4C4
:109459003400F583E5BEF0052DE52D7002052C05D8
:109469002A7E00E52D5403FFEF64034E70047F014B
:1094790080027F00E52AC3953350047E0180027E75
:1094890000EE5FFFEF6019AF2A74462FF582E434CE
:1094990000F583E5BFF0052DE52D7002052C052AA1
:1094A900152A052A02938774062533F5337894E63D
:1094B900FF7894E6FEEE2FFF789EEFF6D2B675346C
:1094C90014E53304FF900042EFF0800375340AC2BB
:0394D9000ED2AC04
:0694DC00200F0302985866
:1094E200C2ACA2B2E433FFE540B401047E018002C3
:1094F2007E00EE5FFFEF700302964EE54C24F9FF0B
:10950200EF6533600675340A029854752B00E52B1B
:10951200C39533400302964BE52C1313543FFF7E51
:10952200008FC7E52DAE2C7802CEC313CE13D8F927
:10953200FF8FC675B9017E00E52D5403FFEF4E7013
:10954200047F0180027F00E52BC3953350047E0126
:1095520080027E00EE5FFFEF601AAF2B74542FF58E
:1095620082E43402F583E0FF8FBC052DE52D700205
:10957200052C052B7E00E52D5403FFEF64014E7090
:10958200047F0180027F00E52BC3953350047E01E6
:1095920080027E00EE5FFFEF601AAF2B74542FF54E
:1095A20082E43402F583E0FF8FBD052DE52D7002C4
:1095B200052C052B7E00E52D5403FFEF64024E704F
:1095C200047F0180027F00E52BC3953350047E01A6
:1095D20080027E00EE5FFFEF601AAF2B74542FF50E
:1095E20082E43402F583E0FF8FBE052DE52D700283
:1095F200052C052B7E00E52D5403FFEF64034E700E
:10960200047F0180027F00E52BC3953350047E0165
:1096120080027E00EE5FFFEF601AAF2B74542FF5CD
:1096220082E43402F583E0FF8FBF052DE52D700241
:10963200052C052B152BC28E75B905D28EC28E75DF
:10964200B902D28E052B02951075340AA2B2E43308
:10965200FFE540B403047E0180027E00EE5FFFEF6F
:109662007003029854E54C24F9FFEF6533600675E8
:10967200340A029854752B00E52BC395334003023C
:109682009825E52C1313543FFF7E008FC7E52DAEBE
:109692002C7802CEC313CE13D8F9FF8FC675B90149
:1096A2007E00E52D5403FFEF4E70047F0180027FA0
:1096B20000E52BC3953350047E0180027E00EE5FED
:1096C200FFEF6036AF2B74542FF582E43402F5833A
:1096D200E0FF8FBCAF2B74542FF582E43402F58384
:1096E200E0FFAE2B74462EF582E43400F583EFF0F2
:1096F200052DE52D7002052C052B7E00E52D54036A
:10970200FFEF64014E70047F0180027F00E52BC3EE
:10971200953350047E0180027E00EE5FFFEF6036DB
:10972200AF2B74542FF582E43402F583E0FF8FBD32
:10973200AF2B74542FF582E43402F583E0FFAE2B95
:1097420074462EF582E43400F583EFF0052DE52D05
:109752007002052C052B7E00E52D5403FFEF6402F9
:109762004E70047F0180027F00E52BC395335004C5
:109772007E0180027E00EE5FFFEF6036AF2B7454F5
:109782002FF582E43402F583E0FF8FBEAF2B7454D1
:109792002FF582E43402F583E0FFAE2B74462EF5FA
:1097A20082E43400F583EFF0052DE52D7002052CDF
:1097B200052B7E00E52D5403FFEF64034E70047FFA
:1097C2000180027F00E52BC3953350047E018002A5
:1097D2007E00EE5FFFEF6036AF2B74542FF582E40C
:1097E2003402F583E0FF8FBFAF2B74542FF582E470
:1097F2003402F583E0FFAE2B74462EF582E434008A
:10980200F583EFF0052DE52D7002052C052B152BA8
:10981200C28E75B905D28EC28E75B902D28E052B53
:1098220002967A75B904E5B9702574062533F533C5
:109832007894E6FF7894E6FEEE2FFF789EEFF6D25C
:10984200B6753414E53304FF900042EFF0800375DF
:06985200340AC20FD2AC83
:10985800900273E0FFEF640B600302996690027355
:10986800E4F0E5A475F00A84AFF0EF700F90003CC7
:10987800E0FFEFB41E0690003C740AF0E5A475F012
:109888000A84AFF0EFB4090E90003CE0FFEF7006D9
:1098980090003C741EF0C2AC120003D219D2AC90F6
:1098A8000271E004F0900271E0FFEFD394005003DE
:1098B8000299489002717401F0E53464056003026E
:1098C8009948300A7B753428D2B675400275331A28
:1098D80078A2760078A2E6FFEFC39533502578A2E8
:1098E800E6FF74C02FF582E43400F583E0FF78A228
:1098F800E6FE74462EF582E43400F583EFF078A294
:109908000680D190024E747EF0E5464480FF9002B6
:109918004FEFF09002507407F09002517402F090EB
:109928000252E4F0900253E533F074062533F53320
:10993800E53304FF900042EFF0789D760175997E3B
:1099480090003DE0FFEFD39432500690003DE004D4
:10995800F090003DE0FFEFD394324002D208E54595
:0A996800700302921E80F702921EA7
:03997200D0D02230
:107A3E00781A760D78877600788A760078887600C0
:107A4E007889760090001FE4F0781AE6FF90001F08
:107A5E00E0FEEEC39F4003027B5590001FE0FF8FB8
:107A6E0019AF19EFC454F02489F582E43406F58376
:107A7E00E0FF8F18AF19EFC454F02481F582E4347F
:107A8E0006F583E0FFEFB48824E518B41504788872
:107A9E007680E518B4160478887640E518B4190493
:107AAE0078887620E518B41A0478887610AF19EF26
:107ABE00C454F02481F582E43406F583E0FFEFB47C
:107ACE008424E518B4150478897680E518B4160474
:107ADE0078897640E518B4190478897620E518B4CB
:107AEE001A0478897610AF19EFC454F02481F58208
:107AFE00E43406F583E0FFEFB48D14AF19EFC454F0
:107B0E00F02481F582E43406F583748CF0D210AF44
:107B1E0019EFC454F02481F582E43406F583E0FFB6
:107B2E00EFB48C1AE518B4170878877680788D76BE
:107B3E0040E518B41B0878877620788D7610900073
:107B4E001FE004F0027A5790001D74D0F0C2EF903F
:107B5E00001C7402F090001CE014F090001CE0FF7A
:107B6E00EF70F2800280EEC2ED90001FE4F0900004
:107B7E001FE0FFEFC394024003027C6F90001EE4EF
:107B8E00F090001EE0FFEFC39408506290001DE0DD
:107B9E00FFEF20E704C2EF8002D2EF90001C7402C8
:107BAE00F090001CE014F090001CE0FFEF70F280EB
:107BBE000280EED2ED30EDFD800280F990001C7453
:107BCE0002F090001CE014F090001CE0FFEF70F249
:107BDE00800280EEC2EDC2EF90001DE0FFEF25E0C7
:107BEE00FF90001DEFF090001EE004F080939000D7
:107BFE001C7402F090001CE014F090001CE0FFEFEB
:107C0E0070F2800280EEC2EED2EDD2EF30EDFD804A
:107C1E000280F990001C74C8F090001CE014F090E3
:107C2E00001CE0FFEF70047F0180027F0020EC0457
:107C3E007E0180027E00EE4FFFEF60DD800280D974
:107C4E0090001CE0FFEF7006900272E004F0D2EE9E
:107C5E00C2ED90001D741AF090001FE004F0027B3C
:107C6E007C90001C7402F090001CE014F090001C3C
:107C7E00E0FFEF70F2800280EED2ED30EDFD80027B
:107C8E0080F990001C7402F090001CE014F090003B
:107C9E001CE0FFEF70F2800280EED2EF90001C74B9
:107CAE0002F090001CE014F090001CE0FFEF70F268
:107CBE00800280EE90001D74D1F090001C7402F0D2
:107CCE0090001CE014F090001CE0FFEF70F28002B8
:107CDE0080EEC2EF90001C7402F090001CE014F0D5
:107CEE0090001CE0FFEF70F2800280EEC2ED90007B
:107CFE001C7402F090001CE014F090001CE0FFEFEA
:107D0E0070F2800280EE90001EE4F090001EE0FF04
:107D1E00EFC39408506290001DE0FFEF20E704C20D
:107D2E00EF8002D2EF90001C7402F090001CE01461
:107D3E00F090001CE0FFEF70F2800280EED2ED902A
:107D4E00001C7402F030EDFD800280F990001CE002
:107D5E0014F090001CE0FFEF70F2800280EEC2ED96
:107D6E00C2EF90001DE0FFEF25E0FF90001DEFF049
:107D7E0090001EE004F0809390001C7402F09000BE
:107D8E001CE014F090001CE0FFEF70F2800280EE19
:107D9E00C2EED2EFD2ED90001C7402F030EDFD80F9
:107DAE000280F990001CE014F090001CE0FFEF70D0
:107DBE00F2800280EE90001C74C8F090001CE0145B
:107DCE00F090001CE0FFEF70047F0180027F002026
:107DDE00EC047E0180027E00EE4FFFEF60DD80023C
:107DEE0080D990001CE0FFEF7006900272E004F064
:107DFE00D2EEC2ED90001C7402F090001CE014F064
:107E0E0090001CE0FFEF70F2800280EE90001FE405
:107E1E00F090001FE0FFEFC394124003027F3E90EC
:107E2E00001EE4F090001EE0FFEFC3940840030232
:107E3E007EE9D2EFC2EED2ED30EDFD800280F990F8
:107E4E00001C7402F090001CE014F090001CE0FF87
:107E5E00EF70F2800280EE20EC3090001FE0FF7495
:107E6E00282FF582E43400F583E0FFEF25E0FFEFE5
:107E7E00F090001FE0FF74282FF582E43400F583A4
:107E8E00E0FFEF54FEFFEFF0802E90001FE0FF7436
:107E9E00282FF582E43400F583E0FFEF25E0FFEFB5
:107EAE00F090001FE0FF74282FF582E43400F58374
:107EBE00E0FFEF4401FFEFF0C2ED90001C7402F002
:107ECE0090001CE014F090001CE0FFEF70F28002B6
:107EDE0080EE90001EE004F0027E32C2EF90001F92
:107EEE00E0FFEFB41102D2EFD2EED2ED30EDFD8015
:107EFE000280F990001C7402F090001CE014F090C7
:107F0E00001CE0FFEF70F2800280EEC2EDC2EE9038
:107F1E00001C7402F090001CE014F090001CE0FFB6
:107F2E00EF70F2800280EE90001FE004F0027E1FE0
:107F3E00D2EE90001C7402F090001CE014F0900041
:107F4E001CE0FFEF70F2800280EEC2EF90001C7416
:107F5E0002F090001CE014F090001CE0FFEF70F2B5
:107F6E00800280EED2ED30EDFD800280F990001C93
:107F7E007402F090001CE014F090001CE0FFEF7013
:107F8E00F2800280EED2EF900028E0FF7E00EF7FBD
:107F9E0000FE900029E0FD7C00EE4CFEEF4DFF78D8
:107FAE00A0EEF608EFF690002AE0FFE4FCFDFE7866
:107FBE00EA12BBDB78EA12BBC2780812BBAF78EAD2
:107FCE0012BBDB78EA12BBCE90002BE0FFE4FCFD87
:107FDE00FEEB2FFFEA3EFEE93DFDE83CFC78EA129F
:107FEE00BBDB78EA12BBC2780812BBAF78EA12BBD1
:107FFE00DB78EA12BBCE90002CE0FFE4FCFDFEEB3A
:10800E002FFFEA3EFEE93DFDE83CFC78EA12BBDBC1
:10801E0078EA12BBC2780812BBAF78EA12BBDB78E3
:10802E00EA12BBCE90002DE0FFE4FCFDFEEB2FFF2D
:10803E00EA3EFEE93DFDE83CFC78EA12BBDB90002F
:10804E002EE0FFE4FCFDFE78EE12BBDB78EE12BBF9
:10805E00C2780812BBAF78EE12BBDB78EE12BBCE45
:10806E0090002FE0FFE4FCFDFEEB2FFFEA3EFEE961
:10807E003DFDE83CFC78EE12BBDB78EE12BBC2781D
:10808E000812BBAF78EE12BBDB78EE12BBCE9000BF
:10809E0030E0FFE4FCFDFEEB2FFFEA3EFEE93DFD86
:1080AE00E83CFC78EE12BBDB78EE12BBC27808120D
:1080BE00BBAF78EE12BBDB78EE12BBCE900031E098
:1080CE00FFE4FCFDFEEB2FFFEA3EFEE93DFDE83C42
:1080DE00FC78EE12BBDB900032E0FF7E00EF7F00FB
:1080EE00FE900033E0FD7C00EE4CFEEF4DFF900362
:1080FE0017EEF0A3EFF0900034E0FF7E00EF7F006C
:10810E00FE900035E0FD7C00EE4CFEEF4DFF900240
:10811E00D7EEF0A3EFF0900036E0FFE4FCFDFE7822
:10812E00E612BBDB78E612BBC2780812BBAF78E66C
:10813E0012BBDB78E612BBCE900037E0FFE4FCFD0D
:10814E00FEEB2FFFEA3EFEE93DFDE83CFC78E61231
:10815E00BBDB78E612BBC2780812BBAF78E612BB67
:10816E00DB78E612BBCE900038E0FFE4FCFDFEEBC0
:10817E002FFFEA3EFEE93DFDE83CFC78E612BBDB54
:10818E0078E612BBC2780812BBAF78E612BBDB787A
:10819E00E612BBCE900039E0FFE4FCFDFEEB2FFFB4
:1081AE00EA3EFEE93DFDE83CFC78E612BBDB9000C2
:1081BE001D74D0F0C2EF90001C7402F090001CE011
:1081CE0014F090001CE0FFEF70F2800280EEC2ED22
:1081DE0090001FE4F090001FE0FFEFC394024003F5
:1081EE000282D690001EE4F090001EE0FFEFC394D2
:1081FE0008506290001DE0FFEF20E704C2EF8002FE
:10820E00D2EF90001C7402F090001CE014F090006D
:10821E001CE0FFEF70F2800280EED2ED30EDFD80BB
:10822E000280F990001C7402F090001CE014F09093
:10823E00001CE0FFEF70F2800280EEC2EDC2EF9004
:10824E00001DE0FFEF25E0FF90001DEFF090001EF7
:10825E00E004F0809390001C7402F090001CE01477
:10826E00F090001CE0FFEF70F2800280EEC2EED2C2
:10827E00EDD2EF30EDFD800280F990001C74C8F055
:10828E0090001CE014F090001CE0FFEF70047F01E2
:10829E0080027F0020EC047E0180027E00EE4FFF04
:1082AE00EF60DD800280D990001CE0FFEF70069039
:1082BE000272E004F0D2EEC2ED90001D7433F09025
:1082CE00001FE004F00281E390001C7402F09000A5
:1082DE001CE014F090001CE0FFEF70F2800280EEC4
:1082EE00D2ED30EDFD800280F990001C7402F0900A
:1082FE00001CE014F090001CE0FFEF70F280028092
:10830E00EED2EF90001C7402F090001CE014F0907E
:10831E00001CE0FFEF70F2800280EE90001D74D121
:10832E00F090001C7402F090001CE014F090001C01
:10833E00E0FFEF70F2800280EEC2EF90001C74023C
:10834E00F090001CE014F090001CE0FFEF70F28043
:10835E000280EEC2ED90001C7402F090001CE0143E
:10836E00F090001CE0FFEF70F2800280EE90001E95
:10837E00E4F090001EE0FFEFC39408506290001DE1
:10838E00E0FFEF20E704C2EF8002D2EF90001C74F2
:10839E0002F090001CE014F090001CE0FFEF70F271
:1083AE00800280EED2ED90001C7402F030EDFD8064
:1083BE000280F990001CE014F090001CE0FFEF70BA
:1083CE00F2800280EEC2EDC2EF90001DE0FFEF25BD
:1083DE00E0FF90001DEFF090001EE004F0809390FF
:1083EE00001C7402F090001CE014F090001CE0FFE2
:1083FE00EF70F2800280EEC2EED2EFD2ED90001C52
:10840E007402F030EDFD800280F990001CE014F053
:10841E0090001CE0FFEF70F2800280EE90001C7462
:10842E00C8F090001CE014F090001CE0FFEF700408
:10843E007F0180027F0020EC047E0180027E00EE30
:10844E004FFFEF60DD800280D990001CE0FFEF70DF
:10845E0006900272E004F0D2EEC2ED90001C74029F
:10846E00F090001CE014F090001CE0FFEF70F28022
:10847E000280EE90001FE4F090001FE0FFEFC39427
:10848E000340030285A590001EE4F090001EE0FF5D
:10849E00EFC394084003028550D2EFC2EED2ED3006
:1084AE00EDFD800280F990001C7402F090001CE03B
:1084BE0014F090001CE0FFEF70F2800280EE20ECD2
:1084CE003090001FE0FF74282FF582E43400F5830E
:1084DE00E0FFEF25E0FFEFF090001FE0FF74282F84
:1084EE00F582E43400F583E0FFEF54FEFFEFF080F9
:1084FE002E90001FE0FF74282FF582E43400F583E0
:10850E00E0FFEF25E0FFEFF090001FE0FF74282F53
:10851E00F582E43400F583E0FFEF4401FFEFF0C293
:10852E00ED90001C7402F090001CE014F090001C02
:10853E00E0FFEF70F2800280EE90001EE004F00289
:10854E008499C2EF90001FE0FFEFB40202D2EFD287
:10855E00EED2ED30EDFD800280F990001C7402F039
:10856E0090001CE014F090001CE0FFEF70F280020F
:10857E0080EEC2EDC2EE90001C7402F090001CE082
:10858E0014F090001CE0FFEF70F2800280EE90007D
:10859E001FE004F0028486D2EE90001C7402F0906C
:1085AE00001CE014F090001CE0FFEF70F2800280DF
:1085BE00EEC2EF90001C7402F090001CE014F090DC
:1085CE00001CE0FFEF70F2800280EED2ED30EDFD88
:1085DE00800280F990001C7402F090001CE014F0F0
:1085EE0090001CE0FFEF70F2800280EED2EF900060
:1085FE0029E0FF7E00EF7F00FE90002AE0FD7C0068
:10860E00EE4CFEEF4DFF900315EEF0A3EFF0900051
:10861E0028E0FF9002AAEFF09002AAE0FFEF540CC0
:10862E00FFEF60047F0180027F009002AAE0FEEE61
:10863E0070047E0180027E00EF4EFF9002AAE0FEE3
:10864E00EEB4FF047E0180027E00EE4FFFEF600667
:10865E009002AA7471F090001D74D0F0C2EF9000D9
:10866E001C7402F090001CE014F090001CE0FFEF70
:10867E0070F2800280EEC2ED90001FE4F090001FB9
:10868E00E0FFEFC39402400302877D90001EE4F0EA
:10869E0090001EE0FFEFC39408506290001DE0FFB3
:1086AE00EF20E704C2EF8002D2EF90001C7402F0BC
:1086BE0090001CE014F090001CE0FFEF70F28002BE
:1086CE0080EED2ED30EDFD800280F990001C740238
:1086DE00F090001CE014F090001CE0FFEF70F280B0
:1086EE000280EEC2EDC2EF90001DE0FFEF25E0FF2D
:1086FE0090001DEFF090001EE004F0809390001C9F
:10870E007402F090001CE014F090001CE0FFEF707B
:10871E00F2800280EEC2EED2EDD2EF30EDFD80029D
:10872E0080F990001C74C8F090001CE014F09000CA
:10873E001CE0FFEF70047F0180027F0020EC047EBE
:10874E000180027E00EE4FFFEF60DD800280D99047
:10875E00001CE0FFEF7006900272E004F0D2EEC251
:10876E00ED90001DE4F090001FE004F002868B9067
:10877E00001C7402F090001CE014F090001CE0FF4E
:10878E00EF70F2800280EED2ED30EDFD800280F9C6
:10879E0090001C7402F090001CE014F090001CE09D
:1087AE00FFEF70F2800280EED2EF90001C7402F0A8
:1087BE0090001CE014F090001CE0FFEF70F28002BD
:1087CE0080EE90001D74D1F090001C7402F09000A9
:1087DE001CE014F090001CE0FFEF70F2800280EEBF
:1087EE00C2EF90001C7402F090001CE014F0900098
:1087FE001CE0FFEF70F2800280EEC2ED90001C7460
:10880E0002F090001CE014F090001CE0FFEF70F2FC
:10881E00800280EE90001EE4F090001EE0FFEFC399
:10882E009408506290001DE0FFEF20E704C2EF8035
:10883E0002D2EF90001C7402F090001CE014F09035
:10884E00001CE0FFEF70F2800280EED2ED90001C73
:10885E007402F030EDFD800280F990001CE014F0FF
:10886E0090001CE0FFEF70F2800280EEC2EDC2EFCE
:10887E0090001DE0FFEF25E0FF90001DEFF090004F
:10888E001EE004F0809390001C7402F090001CE037
:10889E0014F090001CE0FFEF70F2800280EEC2EE4A
:1088AE00D2EFD2ED90001C7402F030EDFD8002800C
:1088BE00F990001CE014F090001CE0FFEF70F280C5
:1088CE000280EE90001C74C8F090001CE014F09032
:1088DE00001CE0FFEF70047F0180027F0020EC049B
:1088EE007E0180027E00EE4FFFEF60DD800280D9B8
:1088FE0090001CE0FFEF7006900272E004F0D2EEE2
:10890E00C2ED90001C7402F090001CE014F0900078
:10891E001CE0FFEF70F2800280EE90001FE4F090FA
:10892E00001FE0FFEFC394084003028A4C90001E24
:10893E00E4F090001EE0FFEFC3940840030289F7B5
:10894E00D2EFC2EED2ED30EDFD800280F990001C28
:10895E007402F090001CE014F090001CE0FFEF7029
:10896E00F2800280EE20EC3090001FE0FF74202F8A
:10897E00F582E43400F583E0FFEF25E0FFEFF090A1
:10898E00001FE0FF74202FF582E43400F583E0FF32
:10899E00EF54FEFFEFF0802E90001FE0FF74202FAB
:1089AE00F582E43400F583E0FFEF25E0FFEFF09071
:1089BE00001FE0FF74202FF582E43400F583E0FF02
:1089CE00EF4401FFEFF0C2ED90001C7402F0900036
:1089DE001CE014F090001CE0FFEF70F2800280EEBD
:1089EE0090001EE004F0028940C2EF90001FE0FFED
:1089FE00EFB40702D2EFD2EED2ED30EDFD80028061
:108A0E00F990001C7402F090001CE014F090001C11
:108A1E00E0FFEF70F2800280EEC2EDC2EE90001C1D
:108A2E007402F090001CE014F090001CE0FFEF7058
:108A3E00F2800280EE90001FE004F002892DD2EE4B
:108A4E0090001C7402F090001CE014F090001CE0EA
:108A5E00FFEF70F2800280EEC2EF90001C7402F005
:108A6E0090001CE014F090001CE0FFEF70F280020A
:108A7E0080EED2ED30EDFD800280F990001C740284
:108A8E00F090001CE014F090001CE0FFEF70F280FC
:108A9E000280EED2EF900020E0FFEFC4540FFFEF04
:108AAE0075F00AA4FF900020E0FEEE540FFEEF2EAC
:108ABE00FF90001DEFF090001DE0FF8FA3900021AE
:108ACE00E0FFEFC4540FFFEF75F00AA4FF900021F2
:108ADE00E0FEEE540FFEEF2EFF90001DEFF0900023
:108AEE001DE0FF8FA4900022E0FFEFC4540FFFEFB4
:108AFE0075F00AA4FF900022E0FEEE540FFEEF2E5A
:108B0E00FF90001DEFF090001DE0FF8FA575A101F5
:018B1E002234
:10BC6F0075891175D700C2AFD2C075C072D2AFE55A
:10BC7F00D720E60575F83D80F675FD03D2EBD2EDC2
:10BC8F00D2EED2EF75C830C2ADC2CAC2ACC2AE7569
:10BC9F009850758700759E84759D12900075E4F01D
:10BCAF00A374C0F09000737404F0A3E4F0900072DA
:10BCBF00E4F0900072E0FFEFC39480400302BD9C5C
:10BCCF00C2AF900075E0FEA3E0FFEEFF7E00EF54E1
:10BCDF0003F5C7900075E0FEA3E0FF8FC675B901AD
:10BCEF0075C700D2AFAFBC7E00EF7F00FEADBD7C4D
:10BCFF0000EE4CFEEF4DFF900077EEF0A3EFF0AFAC
:10BD0F00BE7E00EF7F00FEADBF7C00EE4CFEEF4D20
:10BD1F00FF900079EEF0A3EFF0900077E0FEA3E044
:10BD2F00FF900073E0FCA3E0FD8D828C83C083C085
:10BD3F0082900072E0FDD082D08375F002ED12BCCC
:10BD4F003DEEF0A3EFF0900079E0FEA3E0FF90004E
:10BD5F0073E0FCA3E0FD8D828C83C083C0829000D2
:10BD6F0072E0FDD082D08375F002ED12BC3DA3A32B
:10BD7F00EEF0A3EFF0900076E004F07006900075FF
:10BD8F00E004F0900072E02402F002BCC190007554
:10BD9F007401F0A3E4F09000737405F0A3E4F09045
:10BDAF000072E4F0900072E0FFEFC3948040030252
:10BDBF00BE8EC2AF900075E0FEA3E0FFEEFF7E00E7
:10BDCF00EF5403F5C7900075E0FEA3E0FF8FC67533
:10BDDF00B90175C700D2AFAFBC7E00EF7F00FEADDB
:10BDEF00BD7C00EE4CFEEF4DFF900077EEF0A3EF21
:10BDFF00F0AFBE7E00EF7F00FEADBF7C00EE4CFECD
:10BE0F00EF4DFF900079EEF0A3EFF0900077E0FE9A
:10BE1F00A3E0FF900073E0FCA3E0FD8D828C83C054
:10BE2F0083C082900072E0FDD082D08375F002ED66
:10BE3F0012BC3DEEF0A3EFF0900079E0FEA3E0FF1F
:10BE4F00900073E0FCA3E0FD8D828C83C083C082E1
:10BE5F00900072E0FDD082D08375F002ED12BC3DF0
:10BE6F00A3A3EEF0A3EFF0900076E004F07006903D
:10BE7F000075E004F0900072E02402F002BDB39070
:10BE8F0000757401F0A37440F09000737406F0A372
:10BE9F00E4F0900072E4F0900072E0FFEFC3948042
:10BEAF00400302BF81C2AF900075E0FEA3E0FFEE3A
:10BEBF00FF7E00EF5403F5C7900075E0FEA3E0FF8F
:10BECF008FC675B90175C700D2AFAFBC7E00EF7FCB
:10BEDF0000FEADBD7C00EE4CFEEF4DFF900077EE07
:10BEEF00F0A3EFF0AFBE7E00EF7F00FEADBF7C0092
:10BEFF00EE4CFEEF4DFF900079EEF0A3EFF09000C7
:10BF0F0077E0FEA3E0FF900073E0FCA3E0FD8D82DD
:10BF1F008C83C083C082900072E0FDD082D0837585
:10BF2F00F002ED12BC3DEEF0A3EFF0900079E0FED1
:10BF3F00A3E0FF900073E0FCA3E0FD8D828C83C033
:10BF4F0083C082900072E0FDD082D08375F002ED45
:10BF5F0012BC3DA3A3EEF0A3EFF0900076E004F047
:10BF6F007006900075E004F0900072E02402F00279
:10BF7F00BEA69000757401F0A37480F090007374E6
:10BF8F0007F0A3E4F0900072E4F0900072E0FFEF8E
:10BF9F00C39480400302C074C2AF900075E0FEA34B
:10BFAF00E0FFEEFF7E00EF5403F5C7900075E0FE53
:10BFBF00A3E0FF8FC675B90175C700D2AFAFBC7EC6
:10BFCF0000EF7F00FEADBD7C00EE4CFEEF4DFF900D
:10BFDF000077EEF0A3EFF0AFBE7E00EF7F00FEAD77
:10BFEF00BF7C00EE4CFEEF4DFF900079EEF0A3EF1B
:10BFFF00F0900077E0FEA3E0FF900073E0FCA3E079
:10C00F00FD8D828C83C083C082900072E0FDD08250
:10C01F00D08375F002ED12BC3DEEF0A3EFF090006F
:10C02F0079E0FEA3E0FF900073E0FCA3E0FD8D82BA
:10C03F008C83C083C082900072E0FDD082D0837564
:10C04F00F002ED12BC3DA3A3EEF0A3EFF09000764B
:10C05F00E004F07006900075E004F0900072E024A8
:10C06F0002F002BF9975E64075D41475D22775D1C9
:0EC07F002430DFFDC2DF75D12530DFFDC2DFCA
:01C08D002290
:10C7810000000000000000000000000000000000A8
:10C791000000000000000108028003880420052831
:10C7A10000A000A8000006000608068006880620F2
:10C7B100062800A000A800000000010802800388EC
:08C7C1000420052800A000A8D7
:10C66200027D00004402CF000000004102AB004105
:10C6720002AC004102AD004102AE0004E200000043
:10C682000042031700004202D700004203150000D7
:10C692004102AA004202A600004202D30000420266
:10C6A200A800004202D500004402DD000000004262
:10C6B200031300004203190000C11EC19D02F200D3
:10C6C2000002F4000004EA0000000004EE00000092
:0BC6D2000004E600000000027B0000F6
:05003600900062EFF0F4
:10003B00900063E4F0A3E4F078C5760078C612BBB9
:10004B00F30000000078CA7600087600757800751A
:10005B00770075760075750078CC7600757900752C
:10006B007A0078CD12BBF300000000900065E4F03D
:10007B00A3E4F0900067E4F0900068E4F078D276A7
:10008B000008760078D4760078D5760078D612BB47
:0B009B00F300000000201703020347E1
:1000A600754B00D215755300AF53EFC454F0248935
:1000B600F582E43406F583E0FF90006BEFF09000E4
:1000C6006BE0FFEF5403FFEF75F012A42481F58275
:1000D600E434C7F583C083C08290006BE0FFEF1362
:1000E60013543FFFD082D08375F002EF12BC3DE47B
:1000F60093FE740193FF900069EEF0A3EFF0900079
:1001060069E0FEA3E0FFEF54B8FFE5A05457FEEE0A
:100116004FFF90006BEFF090006BE0FF8FA075D45F
:1001260003900069E0FEA3E0FFEEFF7E00EF44408F
:10013600F5E675D12A900067E4F0900067E0FFEFDE
:10014600C3940D400302032F900067E0FFEFC454F1
:10015600F02480F582E43406F583E0FF7E00900209
:100166009DE0FCA3E0FDEF6D7002EE6C70047F0174
:1001760080027F0090029DE0FCA3E0FDED4C600450
:100186007E0180027E00EE5FFFEF70030202A89000
:100196000067E0FF75F030EFA42404F582E5F03443
:1001A60004F583E0FEA3E0FFEF4E60047F018002CA
:1001B6007F00900067E0FE75F030EEA42406F5821D
:1001C600E5F03404F583E0FCA3E0FDED4C60047E2D
:1001D6000180027E00EE5FFFEF603D900067E0FF6A
:1001E60075F030EFA42406F582E5F03404F583E0DB
:1001F600FCA3E0FDE412B9257B007A0079C07840C3
:1002060012B70D7B007A0079E0784012B8168F7825
:100216008E778D768C75806C900067E0FF75F03078
:10022600EFA4240AF582E5F03404F583E0FEA3E0AA
:10023600FFEF64FF7003EE64FF700E75780075774C
:1002460000757600757500803B900067E0FF75F0DD
:1002560030EFA4240AF582E5F03404F583E0FCA32C
:10026600E0FDE412B9257B007A0079C0784012B728
:100276000D7B007A0079E0784012B8168F788E7779
:100286008D768C757F007E007D007C3FAB78AA77EB
:10029600A976A87512B61C12B95E90029DEEF0A35F
:1002A600EFF0900067E0FFEF25E02400F582E434EC
:1002B60002F583E4F0A3E4F0900067E0FFEF25E0A9
:1002C60025E024C0F582E43401F58312BC0C00005D
:1002D6000000900067E0FFEF25E025E02400F582AE
:1002E600E43401F58312BC0C00000000900067E0C6
:1002F600FFEF25E025E02440F582E43401F5831282
:10030600BC0C00000000900067E0FFEF25E025E050
:100316002480F582E43401F58312BC0C0000000051
:10032600900067E004F00201409002A1E4F0A3E42B
:10033600F078A0E6FE08E6FF9002A4EEF0A3EFF048
:010346002294
:0F03470090029FE0FEA3E0FFEF4E7003020F8FC6
:1003560090029FE0FEA3E0FFEF20E00302052E20BF
:10036600050302052EC20578E612BBF30000000065
:100376007890760008760090029AE4F0A3E4F09074
:1003860002A1E4F0A3E4F09002A0E0FFEF54FEFF28
:100396009002A0EFF090006974D0F090006A742883
:1003A600F078E612BBC2781812BB9C90006BEFF097
:1003B60078E612BBC2781012BB9C90006CEFF07806
:1003C600E612BBC2780812BB9C90006DEFF078E68F
:1003D60012BBC290006EEFF0C2EF90022B7402F0D7
:1003E60090022BE014F090022BE0FFEF70F28002F7
:1003F60080EEC2ED756200E562C394064003020416
:10040600F1756300E563C394085077AF6274692F92
:10041600F582E43400F583E0FFEF20E704C2EF80C5
:1004260002D2EF90022B7402F090022BE014F090AF
:10043600022BE0FFEF70F2800280EED2ED30EDFD90
:10044600800280F990022B7402F090022BE014F0E7
:1004560090022BE0FFEF70F2800280EEC2ED90007A
:1004660067E0FFEF64076014AF6274692FF582E4FA
:100476003400F583E0FFEF25E0FFEFF0C2EF056300
:10048600808290022B7402F090022BE014F090020E
:100496002BE0FFEF70F2800280EED2EFC2EED2EDDB
:1004A60030EDFD800280F990022B74C8F090022B8B
:1004B600E014F090022BE0FFEF70047F0180027FD2
:1004C6000020EC047E0180027E00EE4FFFEF60DD2F
:1004D600800280D990022BE0FFEF7006900272E056
:1004E60004F0D2EEC2ED05620203FD90022B740207
:1004F600F090022BE014F090022BE0FFEF70F280F8
:100506000280EED2ED30EDFD800280F990022B7470
:1005160002F090022BE014F090022BE0FFEF70F255
:10052600800280EED2EFD20590029FE0FEA3E0FFAC
:10053600EF20E1030206F62005030206F6C205785F
:10054600EA12BBF30000000078F27600087600900D
:1005560002A0E0FFEF54FDFF9002A0EFF0900069CB
:1005660074D0F090006A741CF078EA12BBC2781856
:1005760012BB9C90006BEFF078EA12BBC2781012A7
:10058600BB9C90006CEFF078EA12BBC2780812BBF5
:100596009C90006DEFF078EA12BBC290006EEFF00F
:1005A600C2EF90022B7402F090022BE014F090023E
:1005B6002BE0FFEF70F2800280EEC2ED756200E57F
:1005C60062C3940640030206B9756300E563C394EB
:1005D600085077AF6274692FF582E43400F583E042
:1005E600FFEF20E704C2EF8002D2EF90022B7402E5
:1005F600F090022BE014F090022BE0FFEF70F280F7
:100606000280EED2ED30EDFD800280F990022B746F
:1006160002F090022BE014F090022BE0FFEF70F254
:10062600800280EEC2ED900067E0FFEF6407601481
:10063600AF6274692FF582E43400F583E0FFEF259D
:10064600E0FFEFF0C2EF0563808290022B7402F0A8
:1006560090022BE014F090022BE0FFEF70F2800284
:1006660080EED2EFC2EED2ED30EDFD800280F99041
:10067600022B74C8F090022BE014F090022BE0FFDE
:10068600EF70047F0180027F0020EC047E0180026F
:100696007E00EE4FFFEF60DD800280D990022BE0F6
:1006A600FFEF7006900272E004F0D2EEC2ED056232
:1006B6000205C590022B7402F090022BE014F09014
:1006C600022BE0FFEF70F2800280EED2ED30EDFDFE
:1006D600800280F990022B7402F090022BE014F055
:1006E60090022BE0FFEF70F2800280EED2EFD2058F
:1006F60090029FE0FEA3E0FFEF20E2030208BE2087
:1007060005030208BEC20578EE12BBF30000000026
:1007160078F476000876009002A0E0FFEF54FBFF25
:100726009002A0EFF090006974D0F090006A7420F7
:10073600F078EE12BBC2781812BB9C90006BEFF0FB
:1007460078EE12BBC2781012BB9C90006CEFF0786A
:10075600EE12BBC2780812BB9C90006DEFF078EEEB
:1007660012BBC290006EEFF0C2EF90022B7402F043
:1007760090022BE014F090022BE0FFEF70F2800263
:1007860080EEC2ED756200E562C39406400302087E
:1007960081756300E563C394085077AF6274692F6F
:1007A600F582E43400F583E0FFEF20E704C2EF8032
:1007B60002D2EF90022B7402F090022BE014F0901C
:1007C600022BE0FFEF70F2800280EED2ED30EDFDFD
:1007D600800280F990022B7402F090022BE014F054
:1007E60090022BE0FFEF70F2800280EEC2ED9000E7
:1007F60067E0FFEF64076014AF6274692FF582E467
:100806003400F583E0FFEF25E0FFEFF0C2EF05636C
:10081600808290022B7402F090022BE014F090027A
:100826002BE0FFEF70F2800280EED2EFC2EED2ED47
:1008360030EDFD800280F990022B74C8F090022BF7
:10084600E014F090022BE0FFEF70047F0180027F3E
:100856000020EC047E0180027E00EE4FFFEF60DD9B
:10086600800280D990022BE0FFEF7006900272E0C2
:1008760004F0D2EEC2ED056202078D90022B7402DF
:10088600F090022BE014F090022BE0FFEF70F28064
:100896000280EED2ED30EDFD800280F990022B74DD
:1008A60002F090022BE014F090022BE0FFEF70F2C2
:1008B600800280EED2EFD20590029FE0FEA3E0FF19
:1008C600EF30E510B20A9002A0E0FFEF54DFFF9090
:1008D60002A0EFF090029FE0FEA3E0FFEE20E3030C
:0908E600020DE6200503020DE6F7
:1008EF00755800755900755D00755C00755B007576
:1008FF005A00756100756000755F00755E00C20576
:10090F00755800E558C3940D501AAF58EFC454F002
:10091F002481F582E43406F583E0FFEF648C6004F4
:10092F00055880DFE558C3940D4003020C60AF58A3
:10093F0075F030EFA42406F582E5F03404F583C09A
:10094F0083C082AF59D082D08375F002EF12BC3DC5
:10095F00E0FEA3E0FFC3E57C9FE57B9E5003020C06
:01096F003255
:1009700078AD12BBF300000000AF5875F030EFA463
:100980002403F582E5F03404F583E0FF78D4EFF634
:10099000AF5875F030EFA4240AF582E5F03404F581
:1009A00083C083C082AF59D082D08375F002EF122A
:1009B000BC3DE0FEA3E0FFD3E57C9FE57B9E4004C9
:1009C0007F0180027F0078D4E6FEE559C39E500483
:1009D0007E0180027E00EE5FFFEF6006055905593B
:1009E00080AE78D4E6FFE559C39F4033AF5875F029
:1009F00030EFA42404F582E5F03404F583C083C00D
:100A00008278D4E6FFD082D08375F002EF12BC3D2D
:100A1000E0FEA3E0FF78A0EEF608EFF6020C60AF70
:100A20005875F030EFA4240AF582E5F03404F5831C
:100A3000C083C082AF59D082D08375F002EF12BC60
:100A40003DE0FEA3E0FFE57C6F7003E57B6E700385
:100A5000020C02AF5875F030EFA42404F582E5F0E3
:100A60003404F583C083C082AF59D082D08375F03F
:100A700002EF12BC3DE0FEA3E0FFAD5875F030ED93
:100A8000A42408F582E5F03404F583C083C082AD68
:100A900059D082D08375F002ED12BC3DE0FCA3E09A
:100AA000FDC3ED9FFFEC9EFEE4FCFD8F5D8E5C8D33
:100AB0005B8C5AAF5875F030EFA42406F582E5F050
:100AC0003404F583C083C082AF59D082D08375F0DF
:100AD00002EF12BC3DE0FEA3E0FFC3E57C9FFFE513
:100AE0007B9EFEE4FCFD8F618E608D5F8C5EAF5D52
:100AF000AE5CAD5BAC5AAB61AA60A95FA85E12BAEE
:100B00004A8F5D8E5C8D5B8C5AAF5875F030EFA4C8
:100B10002406F582E5F03404F583C083C082AF5922
:100B2000D082D08375F002EF12BC3DE0FEA3E0FF5F
:100B3000AD5875F030EDA4240AF582E5F03404F5E3
:100B400083C083C082AD59D082D08375F002ED128C
:100B5000BC3DE0FCA3E0FDC3ED9FFFEC9EFEE4FC8A
:100B6000FD78AD12BBDBAF5DAE5CAD5BAC5AE412A1
:100B7000B920ECC0E0EDC0E0EEC0E0EFC0E078AD41
:100B800012BBC2E412B920C8ECC8C9EDC9CAEECA8A
:100B9000CBEFCBD0E0FFD0E0FED0E0FDD0E0FC1208
:100BA000B8168F788E778D768C757F007E007D00ED
:100BB0007C3FAB78AA77A976A87512B61C12B95EED
:100BC0008F5D8E5C8D5B8C5AAE5CAF5DAD5875F001
:100BD00030EDA42404F582E5F03404F583C083C02D
:100BE00082AD59D082D08375F002ED12BC3DE0FC9D
:100BF000A3E0FDEF2DFFEE3CFE78A0EEF608EFF649
:100C0000805EAF5875F030EFA42408F582E5F0342B
:100C100004F583C083C082AF59D082D08375F002BF
:100C2000EF12BC3DE0FEA3E0FF78A0EEF608EFF681
:100C3000802EAF5875F030EFA42404F582E5F0342F
:100C400004F583C083C082AF59D082D08375F0028F
:100C5000EF12BC3DE0FEA3E0FF78A0EEF608EFF651
:100C600090029FE0FFEF54F7FF90029FEFF090009B
:100C70006974D0F090006A741AF078A0E6FE08E675
:100C8000FFEEFF7E0090006BEFF078A0E6FE08E636
:100C9000FF90006CEFF0C2EF90022B7402F0900214
:100CA0002BE014F090022BE0FFEF70F2800280EE58
:100CB000C2ED756200E562C394044003020DA9759C
:100CC0006300E563C394085077AF6274692FF582BF
:100CD000E43400F583E0FFEF20E704C2EF8002D2A6
:100CE000EF90022B7402F090022BE014F090022B94
:100CF000E0FFEF70F2800280EED2ED30EDFD800279
:100D000080F990022B7402F090022BE014F0900214
:100D10002BE0FFEF70F2800280EEC2ED900067E002
:100D2000FFEF64076014AF6274692FF582E434004A
:100D3000F583E0FFEF25E0FFEFF0C2EF056380826F
:100D400090022B7402F090022BE014F090022BE042
:100D5000FFEF70F2800280EED2EFC2EED2ED30ED06
:100D6000FD800280F990022B74C8F090022BE014F1
:100D7000F090022BE0FFEF70047F0180027F0020E3
:100D8000EC047E0180027E00EE4FFFEF60DD80020A
:100D900080D990022BE0FFEF7006900272E004F021
:100DA000D2EEC2ED0562020CB590022B7402F090F7
:100DB000022BE014F090022BE0FFEF70F280028033
:100DC000EED2ED30EDFD800280F990022B7402F03E
:100DD00090022BE014F090022BE0FFEF70F2800203
:060DE00080EED2EFD20507
:100DE60090029FE0FEA3E0FFEE20E403020F8F20B7
:100DF6000503020F8FC2059002D7E57BF0A3E57CC1
:100E0600F090029FE0FFEF54EFFF90029FEFF0900B
:100E1600006974D0F090006A7426F09002D7E0FE64
:100E2600A3E0FFEEFF7E0090006BEFF09002D7E0AC
:100E3600FEA3E0FF90006CEFF0C2EF90022B74026D
:100E4600F090022BE014F090022BE0FFEF70F2809E
:100E56000280EEC2ED756200E562C39404400302AF
:100E66000F52756300E563C394085077AF627469E7
:100E76002FF582E43400F583E0FFEF20E704C2EFAC
:100E86008002D2EF90022B7402F090022BE014F055
:100E960090022BE0FFEF70F2800280EED2ED30ED93
:100EA600FD800280F990022B7402F090022BE01470
:100EB600F090022BE0FFEF70F2800280EEC2ED9020
:100EC6000067E0FFEF64076014AF6274692FF58274
:100ED600E43400F583E0FFEF25E0FFEFF0C2EF0515
:100EE60063808290022B7402F090022BE014F09043
:100EF600022BE0FFEF70F2800280EED2EFC2EED25C
:100F0600ED30EDFD800280F990022B74C8F090025E
:100F16002BE014F090022BE0FFEF70047F018002BB
:100F26007F0020EC047E0180027E00EE4FFFEF6022
:100F3600DD800280D990022BE0FFEF7006900272EE
:100F4600E004F0D2EEC2ED0562020E5E90022B7452
:100F560002F090022BE014F090022BE0FFEF70F20B
:100F6600800280EED2ED30EDFD800280F990022BFA
:100F76007402F090022BE014F090022BE0FFEF7069
:090F8600F2800280EED2EFD205E8
:0D0F8F00900062E0FFEF640A6003025E095B
:100F9C00900062E4F090024CE0FF90022EE0FEEE36
:100FAC006F70030218D990024CE0FFEF541FFFEF53
:0D0FBC006407600302118E20050302118EF0
:100FC90090006FE4F09002AAE0FFEF13921B9002E9
:100FD900AAE0FFEFA2E1921CA21C821B5010900212
:100FE900AAE0FFEF54FDFF9002AAEFF0802F301B1B
:100FF9001E9002AAE0FFEF4402FF9002AAEFF090D0
:1010090002AAE0FFEF54FEFF9002AAEFF0800E90D3
:1010190002AAE0FFEF4401FF9002AAEFF0C2059097
:10102900006974D0F090006A7433F09002AAE0FF6E
:1010390090006BEFF0C2EF90022B7402F090022B3C
:10104900E014F090022BE0FFEF70F2800280EEC214
:10105900ED756400E564C39403400302115175659D
:1010690000E565C394085077AF6474692FF582E48D
:101079003400F583E0FFEF20E704C2EF8002D2EFEE
:1010890090022B7402F090022BE014F090022BE0F6
:10109900FFEF70F2800280EED2ED30EDFD8002802C
:1010A900F990022B7402F090022BE014F090022BBD
:1010B900E0FFEF70F2800280EEC2ED90006FE0FF7A
:1010C900EF64076014AF6474692FF582E43400F5A6
:1010D90083E0FFEF25E0FFEFF0C2EF056580829026
:1010E900022B7402F090022BE014F090022BE0FF27
:1010F900EF70F2800280EED2EFC2EED2ED30EDFD5C
:10110900800280F990022B74C8F090022BE014F051
:1011190090022BE0FFEF70047F0180027F0020EC3A
:10112900047E0180027E00EE4FFFEF60DD800280C9
:10113900D990022BE0FFEF7006900272E004F0D222
:10114900EEC2ED056402105D90022B7402F090026C
:101159002BE014F090022BE0FFEF70F2800280EE9A
:10116900D2ED30EDFD800280F990022B7402F090EF
:10117900022BE014F090022BE0FFEF70F280028066
:05118900EED2EFD205DB
:10118E0090024CE0FFEF541FFFEF64066003021362
:07119E004E20050302134E71
:1011A50090006FE4F09002AAE0FFEF24FF921B90FD
:1011B50002AAE0FFEF6401FFEF24FF921C9002AA50
:1011C500E0FFEFC4540FF5660566E566C454F0FF0D
:1011D5009002AAE0FEEE540FFEEF4EFF9002AAEF3A
:1011E500F0C20590006974D0F090006A7433F090F5
:1011F50002AAE0FF90006BEFF0C2EF90022B7402A1
:10120500F090022BE014F090022BE0FFEF70F280DB
:101215000280EEC2ED756600E566C39403400302E5
:101225001311756700E567C394085077AF66746955
:101235002FF582E43400F583E0FFEF20E704C2EFE9
:101245008002D2EF90022B7402F090022BE014F092
:1012550090022BE0FFEF70F2800280EED2ED30EDD0
:10126500FD800280F990022B7402F090022BE014AD
:10127500F090022BE0FFEF70F2800280EEC2ED905D
:10128500006FE0FFEF64076014AF6674692FF582A5
:10129500E43400F583E0FFEF25E0FFEFF0C2EF0552
:1012A50067808290022B7402F090022BE014F0907C
:1012B500022BE0FFEF70F2800280EED2EFC2EED299
:1012C500ED30EDFD800280F990022B74C8F090029C
:1012D5002BE014F090022BE0FFEF70047F018002F9
:1012E5007F0020EC047E0180027E00EE4FFFEF6060
:1012F500DD800280D990022BE0FFEF70069002722C
:10130500E004F0D2EEC2ED056602121D90022B74C8
:1013150002F090022BE014F090022BE0FFEF70F248
:10132500800280EED2ED30EDFD800280F990022B37
:101335007402F090022BE014F090022BE0FFEF70A6
:09134500F2800280EED2EFD20525
:10134E0090024CE0FFEF541FFFEF640160030216A2
:10135E00DE2005030216DEC20578CC760D78CCE6CB
:10136E00FF78D5EFF6900067E4F078CCE6FF9000BA
:10137E0067E0FEEEC39F40030216DC900067E0FFBD
:10138E00EFC454F02487F582E43406F583E0FF7849
:10139E00D4EFF678D4E6FFEF6450600302153A906E
:1013AE000067E0FFEF25E025E02480F582E43401BC
:1013BE00F583E0FCA3E0FDA3E0FEA3E0FF9002D7DF
:1013CE00EEF0A3EFF0756ED0756F269002D7E0FEAB
:1013DE00A3E0FFEEFF7E008F709002D7E0FEA3E049
:1013EE00FF8F71C2EF90022B7402F090022BE0146B
