:10B6E00000000AC01624223B2EAA3B1147B9548001
:10B6F00061406E5B7B5B888895FDA363B125BEF9D5
:10B70000CCCC00000CCD199A2666333340004CCDCA
:10B7100059996666733380008CCC9999A666B333C9
:10B72000BFFFCCCC000000000000000000000000C3
:10B730000000000000000000000000000000000009
:10B74000000000000AC01645227D2ECB3B31481B6D
:10B75000552461E36E5B7B5B888895FDA363B1250F
:10B76000BEF9CCCC0000045A0D9119AE2680334DA1
:10B7700040194CE659B36680736D81408FC99E783D
:10B78000ADAEBD43CCCC00050009000D0011001585
:10B79000001700FF0000C0C1C1810140C30103C008
:10B7A0000280C241C60106C00780C7410500C5C16D
:10B7B000C4810440CC010CC00D80CD410F00CFC12D
:10B7C000CE810E400A00CAC1CB810B40C90109C01D
:10B7D0000880C841D80118C01980D9411B00DBC1BD
:10B7E000DA811A401E00DEC1DF811F40DD011DC06D
:10B7F0001C80DC411400D4C1D5811540D70117C08D
:10B800001680D641D20112C01380D3411100D1C19C
:10B81000D0811040F00130C03180F1413300F3C1DC
:10B82000F28132403600F6C1F7813740F50135C06C
:10B830003480F4413C00FCC1FD813D40FF013FC02C
:10B840003E80FE41FA013AC03B80FB413900F9C11C
:10B85000F88138402800E8C1E9812940EB012BC07C
:10B860002A80EA41EE012EC02F80EF412D00EDC16C
:10B87000EC812C40E40124C02580E5412700E7C18C
:10B88000E68126402200E2C1E3812340E10121C09C
:10B890002080E041A00160C06180A1416300A3C19C
:10B8A000A28162406600A6C1A7816740A50165C06C
:10B8B0006480A4416C00ACC1AD816D40AF016FC02C
:10B8C0006E80AE41AA016AC06B80AB416900A9C11C
:10B8D000A88168407800B8C1B9817940BB017BC0BC
:10B8E0007A80BA41BE017EC07F80BF417D00BDC16C
:10B8F000BC817C40B40174C07580B5417700B7C18C
:10B90000B68176407200B2C1B3817340B10171C09B
:10B910007080B041500090C191815140930153C05B
:10B9200052809241960156C057809741550095C16B
:10B93000948154409C015CC05D809D415F009FC12B
:10B940009E815E405A009AC19B815B40990159C01B
:10B9500058809841880148C0498089414B008BC17B
:10B960008A814A404E008EC18F814F408D014DC06B
:10B970004C808C41440084C185814540870147C08B
:10B9800046808641820142C043808341410081C19B
:06B990008081404005012A
:10BBB4004102DE00019300014700013B00014B00FC
:10BBC400043C00000000023100FF02430000029F19
:10BBD400000004940000000004980000000004A386
:10BBE4000000000004A700000000C116C1180236BE
:10BBF4000000023800004202E60000410297000102
:10BC04004000C10C013A00014600420295000002C6
:10BC140048000002800000027E0000028F00000441
:10BC240082000000004102DD0141029B004202E368
:10BC340000004202EA00004102E5004102B91E414F
:10BC440002E2004102DC00022E0000C119C108C159
:10BC54001A4102E0004102E10041029800410299C8
:10BC6400004102DF00014500014D00013300022CB8
:10BC74000000C104C103C10FC10EC101C102C1133F
:10BC8400C114C10DC109024100004202E8000001D3
:10BC94003400013000019D00019C0002910000016C
:0EBCA4009E0004500000000004550000000047
:03001B00029E69D9
:109E6900C0E0C0F0C083C082C0D075D008C28F7571
:109E79008DF3758BD2853143853244AF807E008E58
:109E8900318F32789812ABF07B017A007900780033
:109E9900EF2BFFEE3AFEED39FDEC38FC789812AC69
:109EA90009789412ABF07B017A0079007800EF2BE6
:109EB900FFEE3AFEED39FDEC38FC789412AC0978E6
:109EC9007F06E618700106E54F64FF604B787EE671
:109ED900FE08E6FFEF64907003EE6401705378ECBE
:109EE90012ABF0AB4FEB25E025E02480F582E4349A
:109EF90001F583E0F8A3E0F9A3E0FAA3E0FBEF2B77
:109F0900FFEE3AFEED39FDEC38FC78EC12AC09783D
:109F19007E76000876008019787EE6FE08E6FFD393
:109F2900EF94A0EE940F4009787E7600087600D26F
:109F390013788106E618700106E54E64FF604B78D8
:109F490080E6FE08E6FFEF64907003EE640170534B
:109F590078E812ABF0AB4EEB25E025E02480F582E2
:109F6900E43401F583E0F8A3E0F9A3E0FAA3E0FB08
:109F7900EF2BFFEE3AFEED39FDEC38FC78E812AC38
:109F8900097880760008760080197880E6FE08E670
:109F9900FFD3EF94A0EE940F4009788076000876FD
:109FA90000D2147888E6FFEF700302A1327888E6C0
:109FB900FF7E00EE5531FEEF5532FF7888E6FD7CD5
:109FC90000EF6D7002EE6C70047F0180027F0078F3
:109FD90088E6FEEEFD7C00EC5543FCED5544FD782A
:109FE90088E6FEEEFB7A00ED6B7002EC6A60047E97
:109FF9000180027E00EE5FFFEF700302A0AE053D17
:10A00900E53D7002053C20181CD218753C00753DD1
:10A0190000C204789812AC210000000078A712ACA5
:10A0290021000000007F007E007D007C00AB58AA63
:10A0390057A956A855C312ABB9604BAF58AE57AD27
:10A0490056AC55789812ABFCD312ABB94023D20465
:10A05900853C38853D39789812ABF078A712AC0960
:10A06900789812AC2100000000753C00753D008015
:10A0790034200431853C38853D39789812ABF07825
:10A08900A712AC09801F853C38853D39789812ABF9
:10A09900F078A712AC09789812AC2100000000757D
:10A0A9003C00753D00AE38AF39E4FCFDECC0E0ED95
:10A0B900C0E0EEC0E0EFC0E078A712ABF0D0E0FB63
:10A0C900D0E0FAD0E0F9D0E0F812AB03780112AB96
:10A0D900DDEF2558FFEE3557FEED3556FDEC3555CC
:10A0E900FC789812ABFCD312ABB9400A789812AB42
:10A0F900F078A712AC097F807E387D017C007898C2
:10A1090012ABFCC312ABB940207538007539007524
:10A119003C00753D0078A712AC210000000078983A
:10A1290012AC2100000000C2187887E6FFEF700327
:10A1390002A2B87887E6FF7E00EE5531FEEF553270
:10A14900FF7887E6FD7C00EF6D7002EE6C70047F8E
:10A159000180027F007887E6FEEEFD7C00EC554326
:10A16900FCED5544FD7887E6FEEEFB7A00ED6B7059
:10A1790002EC6A60047E0180027E00EE5FFFEF70F0
:10A189000302A234053FE53F7002053E20161CD2AA
:10A1990016753E00753F00C203789412AC21000089
:10A1A900000078A312AC21000000007F007E007D32
:10A1B900007C00AB53AA52A951A850C312ABB96095
:10A1C9004BAF53AE52AD51AC50789412ABFCD31295
:10A1D900ABB94023D203853E36853F37789412AB1D
:10A1E900F078A312AC09789412AC21000000007534
:10A1F9003E00753F008034200331853E36853F3768
:10A20900789412ABF078A312AC09801F853E36858D
:10A219003F37789412ABF078A312AC09789412AC5A
:10A229002100000000753E00753F00AE36AF37E4EF
:10A23900FCFDECC0E0EDC0E0EEC0E0EFC0E078A3CB
:10A2490012ABF0D0E0FBD0E0FAD0E0F9D0E0F812A0
:10A25900AB03780112ABDDEF2553FFEE3552FEED6E
:10A269003551FDEC3550FC789412ABFCD312ABB9E7
:10A27900400A789412ABF078A312AC097F807E383B
:10A289007D017C00789412ABFCC312ABB9402075F8
:10A299003600753700753E00753F0078A312AC2172
:10A2A90000000000789412AC2100000000C216786A
:10A2B90086E6FFEF700302A5867886E6FF7E00EE4C
:10A2C9005531FEEF5532FF7886E6FD7C00EF6D7063
:10A2D90002EE6C7004D2068002C206788CE6FF7E1C
:10A2E90000EE5531FEEF5532FF788CE6FD7C00EF2C
:10A2F9006D7002EE6C7004D2078002C2072011044F
:10A309007F0180027F003006047E0180027E00EE1C
:10A319005FFFEF700302A3A030073F30101A789F48
:10A32900E6FE08E6FFD3EF9400EE9400406978A0BA
:10A33900E61618700116805F789FE6FE08E6FFE4CE
:10A34900FCFD7BFF7AFF79007800D312ABA340476D
:10A3590078A006E618700106803D301022789FE645
:10A36900FE08E6FFE4FCFD7BFF7AFF79007800D365
:10A3790012ABA3402278A006E6187001068018786F
:10A389009FE6FE08E6FFD3EF9400EE9400400878BC
:10A39900A0E616187001163011047F0180027F00B3
:10A3A9002006047E0180027E00EE5FFFEF7003024B
:10A3B900A44A30073F301022789FE6FE08E6FFE402
:10A3C900FCFD7BFF7AFF79007800D312ABA34071C3
:10A3D90078A006E6187001068067789FE6FE08E611
:10A3E900FFD3EF9400EE9400405778A0E61618705A
:10A3F9000116804D30102A789FE6FE08E6FFD3EF5C
:10A409009400EE9400403A789FE6FE08E6FFD3EF09
:10A419009400EE9400402A78A0E616187001168080
:10A4290020789FE6FE08E6FFE4FCFD7BFF7AFF79D2
:10A43900007800D312ABA3400878A006E618700193
:10A44900062012047F0180027F003007047E01800C
:10A45900027E00EE5FFFEF700302A4E430063F3096
:10A469001022789FE6FE08E6FFE4FCFD7BFF7AFFF9
:10A4790079007800D312ABA3406178A006E6187082
:10A4890001068057789FE6FE08E6FFD3EF9400EEB9
:10A499009400404778A0E61618700116803D3010E8
:10A4A9001A789FE6FE08E6FFD3EF9400EE94004089
:10A4B9002A78A0E616187001168020789FE6FE0813
:10A4C900E6FFE4FCFD7BFF7AFF79007800D312AB4D
:10A4D900A3400878A006E6187001063012047F012F
:10A4E90080027F002007047E0180027E00EE5FFF6C
:10A4F900EF700302A57E30063F30101A789FE6FE02
:10A5090008E6FFD3EF9400EE9400406978A0E616C0
:10A5190018700116805F789FE6FE08E6FFE4FCFDEF
:10A529007BFF7AFF79007800D312ABA3404778A06C
:10A5390006E618700106803D301022789FE6FE0875
:10A54900E6FFE4FCFD7BFF7AFF79007800D312ABCC
:10A55900A3402278A006E6187001068018789FE6C5
:10A56900FE08E6FFD3EF9400EE9400400878A0E6D9
:10A579001618700116A2069211A207921278900677
:10A58900E61870010630003B788FE6FE08E6FFEF1B
:10A5990064907003EE6401704378E412ABFC90029E
:10A5A900E3E0FEA3E0FFE4FCFDEB2FFFEA3EFEE95A
:10A5B9003DFDE83CFC78E412AC09788F760008761A
:10A5C900008019788FE6FE08E6FFD3EF94A0EE9499
:10A5D9000F4009788F7600087600D20DE5456004B2
:10A5E900154580069002E27466F0053AE534B40A2E
:10A5F900047F0180027F00E534B405047E018002F6
:10A609007E00EE4FFFE53AD3940240047E018002BA
:10A619007E00EE5FFFEF600AC2B6753405754BFF29
:10A62900D2AC789DE6FFEFC394015011E534B41420
:10A6390014753428789C760175997E8008E534B4C0
:10A649001403789D16D0D0D082D083D0F0D0E032D8
:0300330002B99679
:10B99600C0E0C0F0C083C082C0D0E8C0E0E9C0E02B
:10B9A600EAC0E0EBC0E0ECC0E0EDC0E0EEC0E0EFE6
:02B9B600C0E0EF
:10B9B8000549E54970020548D3E549949AE5489454
:10B9C800024017754800754900A202B39202300878
:10B9D80009300204D2A48002C2A420DF0302BB9172
:10B9E800C2DFAF54EFC454F02489F582E43406F57D
:10B9F80083E0FFEFB4FF087524007525008014AFBD
:10BA0800DB7E00EF7F00FEADDA7C00EE4CF524EF24
:10BA18004DF52575DB0075DA00AF54EF25E025E01C
:10BA280024DCF582E43400F583C083C082E0F8A307
:10BA3800E0F9A3E0FAA3E0FBAE24AF25E4FCFDEBBC
:10BA48002FFFEA3EFEE93DFDE83CFCD082D08312A0
:10BA5800AC15E54CB40445AF54EF25E025E024DCF3
:10BA6800F582E43400F583E0FCA3E0FDA3E0FEA347
:10BA7800E0FFAB54EB25E025E0249CF582E434029A
:10BA8800F58312AC15AF54EF25E025E024DCF582F0
:10BA9800E43400F58312AC3A000000000554E55484
:10BAA80064077076755400E54C6404706B754C003F
:10BAB8009002B8E4F0754A01E54AC39409504C90E5
:10BAC80002B8E0FFEFC313FF9002B8EFF0AF4AEF00
:10BAD80025E024F1F582E434BDF583E493FE740196
:10BAE80093FFEF54A8FFE5A05457FEEE4FF5A0E5ED
:10BAF800805404FFEFC43354E0FF9002B8E0FEEF37
:10BB08004EFF9002B8EFF0054A80AD9002B8E0FF12
:10BB1800EFF4FF9002B8EFF0054CAF54EFC454F0C7
:10BB28002489F582E43406F583E0FF9002ECEFF017
:10BB38009002ECE0FFEFB4FF069002EC7405F09081
:10BB480002ECE0FFEF5403FFEF75F012A424CDF5EB
:10BB580082E434BDF583C083C0829002ECE0FFEF3D
:10BB68001313543FFFD082D08375F002EF12AC6BF1
:10BB7800E493F524740193F52575D403E524FF7E39
:09BB880000EF4440F5E675D12AF6
:10BB9100D0E0FFD0E0FED0E0FDD0E0FCD0E0FBD073
:10BBA100E0FAD0E0F9D0E0F8D0D0D082D083D0F064
:03BBB100D0E032AF
:0300230002AC9D8F
:0DAC9D00C0E0C0F0C083C082C0D075D010F0
:10ACAA0020980302B13B789EA699C29830B6030257
:10ACBA00B2B6753A00E5346405600302B2B6054BD4
:10ACCA00E54BD39422400675340A02B2B6E54B64CA
:10ACDA00027034789EE6FFEFD3940640047F018029
:10ACEA00027F00789EE6FEEEC3942450047E018023
:10ACFA00027E00EE5FFFEF6008789EE6FF8F4D80D0
:10AD0A000675340A02B2B6E54B700F789EE6FFEF7D
:10AD1A00647E600675340A02B2B6E54B640170407F
:10AD2A00789EE6FFEF654760047F0180027F007826
:10AD3A009EE6FEEE643F60047E0180027E00EF5EC6
:10AD4A00FFE5474480FE789EE6FDEE6D60047E01D5
:10AD5A0080027E00EE5FFFEF600675340A02B2B62B
:10AD6A00789EE6FFAE4B74802EF582E43400F583BC
:10AD7A00EFF0E54B654D70047F0180027F00E54BE3
:10AD8A00D3940640047E0180027E00EE5FFFEF70DE
:10AD9A000302B13B7534327541FF7542FFE53064F9
:10ADAA00FF7038752800E528C3954D400302AE456B
:10ADBA00E528B40106754100754200AF2874802F5A
:10ADCA00F582E43400F583E0FF7E00EF2542F54288
:10ADDA00EE3541F541052880CD8060752801E54DA5
:08ADEA0014FFE528C39F50533C
:10ADF200AF2874802FF582E43400F583E0FF7E00F3
:10AE02008E268F277E00AF420527E527AC267002EB
:10AE1200052614FDEE6CFEEF6DFFEF25E0FFEE332D
:10AE2200FE74942FF58274B73EF583E493FC7401AB
:0FAE320093FDE541FF7E00EE6CF541EF6DF542BB
:10AE4100052880A3E541FF7E00AD4B747F2DF5827F
:10AE5100E43400F583E0FD7C00EF6D7002EE6C7070
:10AE6100047F0180027F00E530B4FF047E0180028F
:10AE71007E00EE4FFF7C00AD42789EE6FEEEFB7A4F
:10AE810000ED6B7002EC6A70047E0180027E00EEC0
:10AE91005FFFEF700302B135900085E0FF8F33E56E
:10AEA10033D3941C400675340A02B2B6E547448098
:10AEB100FF900081E0FEEF6E7030E533B404229024
:10AEC1000086E0FF8FFC900087E0FF8FFB900088F9
:10AED100E0FFEF24FF9283900089E0FFEF24FF92CF
:10AEE100B775340A02B2B602B13B752800E528C332
:10AEF100954D5020AF2874802FF582E43400F583FE
:10AF0100E0FFAE2874BA2EF582E43402F583EFF047
:10AF1100052880D9900081E0FFEF4480FF9002BBBB
:10AF2100EFF09002BDE0FFEF5403F5409002BDE069
:10AF3100FFEF54E0FFEF700302AFF6E533641860F2
:10AF41000DE533D39416400675340A02B2B690006B
:10AF510083E0FFEF541CFFEF600675340A02B2B6BE
:10AF61009002BDE0FFEF541CFFEF600675340A024A
:10AF7100B2B69002BDE0FFEF54E0FF7E008E2C8F51
:10AF81002DE52DAE2C7803C333CE33CED8F9F52D74
:10AF91008E2C9002BEE0FF7E00EF252DFFEE352CBA
:10AFA100FEEF2400F52DEE34FFF52CE540B403044B
:10AFB1007F0180027F00E540B401047E0180027EB2
:10AFC10000EE4FFFEF6027E54D24F9FFEF65336099
:10AFD100047F0180027F002001047E0180027E0047
:10AFE100EF4EFFEF600675340A02B2B6D20FE540AC
:10AFF100B40202D20E9002BDE0FFEF54E0FFEF6019
:10B001000302B0C59002BEE0FFEF7063A219E43302
:10B01100FFE540B402047E0180027E00EE5FFFEF97
:10B02100604D752800E528C395335020AF2874C0C2
:10B031002FF582E43400F583E0FFAE2874462EF547
:10B0410082E43400F583EFF0052880D9D2B6740686
:10B051002533F5337893E6FF7893E6FEEE2FFF78FC
:10B061009DEFF6753414E53304FF900042EFF09044
:10B0710002BDE0FFEFB403047F0180027F00900274
:10B08100BDE0FEEEB401047E0180027E00EE4FFFC2
:10B091009002BDE0FEEEB402047E0180027E00EE6D
:10B0A1004FFF9002BEE0FEEEB420047E0180027EDE
:10B0B10000EE5FFFEF600DE54D24F9FFEF653370A2
:10B0C100031295B29002BDE0FFEFB405047F018049
:10B0D100027F00E54060047E0180027E00EE5FFF9A
:10B0E1009002BEE0FEEEB410047E0180027E00EE0E
:10B0F1005FFF9002BFE0FEEEB401047E0180027E9C
:10B1010000EE5FFFEF600BD21AC2AFD2C075C00272
:10B11100D2AFE534B432047F0180027F00200F04F6
:10B121007E0180027E00EE5FFFEF600E75340A0241
:10B13100B2B6800675340A02B2B620990302B2B6DD
:10B14100C29920B60675340A02B2B6E534642860A5
:10B151000302B2B3789CE6FFEFD394055056789C76
:10B16100E6FFEFB4020C900042E0FF789EEFF6029A
:10B17100B243789CE6FFEFB40123E5474480FF78B2
:10B181009EEFF678917600087600E53064FF700353
:10B1910002B243789176FF0876FF02B243789CE6CB
:10B1A100FF74BA2FF582E43402F583E0FF789EEF55
:10B1B100F602B243789CE6FFEF6533701CE530B4CC
:10B1C100FF06789EA63B807A7891E6FE08E6FFEEC0
:10B1D100FF7E00789EEFF68069AF337E00EF240199
:10B1E100FFEE3400FE789CE6FD7C00ED6F7002EC12
:10B1F1006E700D7891E6FE08E6FF789EEFF68042CC
:10B20100AF337E00EF2401FFEE3400FE789CE6FDB3
:10B211007C00D3ED9FEE6480F8EC648098400F7859
:10B2210091760008760075340A02B2B68014789CD3
:10B23100E6FF74402FF582E43400F583E0FF789E49
:10B24100EFF6789EE6FF8F99E530B4FF11789EE620
:10B25100FF7E007892EF26F618EE36F6804F789C46
:10B26100E6FFEF653360467891E6FE08E6FF7E0073
:10B27100789EE606FD7C00EE6CFEEF6DFFEF25E0AB
:10B28100FFEE33FE74942FF58274B73EF583E49399
:10B29100FC740193FD7891E6FE08E6FFEEFF7E0067
:10B2A100EE6CFEEF6DFF7891EEF608EFF6789C06F6
:05B2B100800375340A62
:0BB2B600D0D0D082D083D0F0D0E032A6
:1095B2009002BFE0FFEFB402047F0180027F0090BF
:1095C20002BCE0FEEEB409047E0180027E00EE5F82
:1095D200FF9002C0E0FEEEB4A0047E0180027E0095
:1095E200EE5FFF9002C1E0FEEEB401047E01800254
:1095F2007E00EE5FFFEF602AD2019002C0E0FF9092
:109602000046EFF09002C1E0FF900047EFF0D2B6C3
:109612007893E6FF7893E6FEEE2FFF789DEFF675DE
:1096220034149002BFE0FFEFB404047F0180027F94
:10963200009002BCE0FEEEB40B047E0180027E00CC
:10964200EE5FFF9002C0E0FEEEB4C1047E01800234
:0B9652007E00EE5FFFEF70030296F356
:10965D007529009002C1E0FF8F29E5296440704013
:10966D009002E8E0FEA3E0FF7F00EF4E7032900223
:10967D00E8E0FEA3E0FFEE4408FE9002E8EEF0A362
:10968D00EFF09002C2E0FF7E00EF757D00F57C905B
:10969D0002C3E0FF7E00EF257DF57DEE357CF57C88
:1096AD00E529645070409002E8E0FEA3E0FF7F00E2
:1096BD00EF4E70329002E8E0FEA3E0FFEE4410FEA4
:1096CD009002E8EEF0A3EFF09002C2E0FF7E00EF13
:1096DD00757D00F57C9002C3E0FF7E00EF257DF5E2
:0696ED007DEE357CF57CEA
:1096F3009002C1E0FFEFB434047F0180027F009049
:1097030002C0E0FEEEB4B2047E0180027E00EE5F92
:10971300FFEF60629002C0E0FF900046EFF090021E
:10972300C1E0FF900047EFF090B994E493FE740119
:1097330093FFEEFF7E00900048EFF090B994E4931E
:10974300FE740193FF900049EFF090004AE534F076
:1097530090004BE5B7F090004CE581F0D2B67893DA
:10976300E6FF7893E6FEEE2FFF789DEFF69002BFBB
:109773007407F07534149002C0E0FFEFB4B0047FB7
:109783000180027F009002BFE0FEEEB402047E017E
:1097930080027E00EE5FFF9002C1E0FEEE64FF6098
:1097A300047E0180027E00EE5FFFEF605C9002C1E9
:1097B300E0FFEFB4010E9002E9E0FFEF4401FF90F8
:1097C30002E9EFF09002C1E0FFEFB4020E9002E96C
:1097D300E0FFEF4402FF9002E9EFF09002C1E0FFE7
:1097E300EFB4030E9002E9E0FFEF4404FF9002E9B7
:1097F300EFF09002C1E0FFEFB4200E9002E9E0FF2A
:10980300EF4420FF9002E9EFF09002C0E0FFEF6425
:10981300B56003029E559002BFE0FFEFB40A047FD8
:109823000180027F00E540B401047E0180027E00D6
:10983300EE5FFF9002BCE0FEEEB411047E018002F5
:109843007E00EE5FFFEF70030299D09002C3E0FF4A
:109853008FA39002C4E0FF8FA49002C5E0FF8FA501
:109863009002C174D0F09002C2E4F0C2EF9002976C
:109873007402F0900297E014F0900297E0FFEF700B
:10988300F2800280EEC2ED78A2760778A2E6FFEFBF
:10989300C394114003029986753500E535C39408D6
:1098A300507778A2E6FF74BA2FF582E43402F58389
:1098B300E0FFEF20E704C2EF8002D2EF900297743B
:1098C30002F0900297E014F0900297E0FFEF70F23D
:1098D300800280EED2ED30EDFD800280F990029798
:1098E3007402F0900297E014F0900297E0FFEF709B
:1098F300F2800280EEC2EDE5356407601678A2E6D9
:10990300FF74BA2FF582E43402F583E0FFEF25E01C
:10991300FFEFF0C2EF053580829002977402F0905A
:109923000297E014F0900297E0FFEF70F28002805C
:10993300EED2EFC2EED2ED30EDFD800280F990025F
:109943009774C8F0900297E014F0900297E0FFEF4D
:1099530070047F0180027F0020EC047E0180027E80
:1099630000EE4FFFEF60DD800280D9900297E0FFA9
:10997300EF70069002DEE004F0D2EEC2ED78A206AC
:1099830002988E9002977402F0900297E014F09080
:109993000297E0FFEF70F2800280EED2ED30EDFD32
:1099A300800280F99002977402F0900297E014F01D
:1099B300900297E0FFEF70F2800280EED2EF900208
:1099C300BF7402F07540029002BC7409F09002BFAC
:1099D300E0FFEFB402047F0180027F00E540B402A0
:1099E300047E0180027E00EE5FFF9002BCE0FEEE8B
:1099F300B409047E0180027E00EE5FFFEF70030274
:109A03009E5590003E74D0F0C2EF9002977402F01E
:109A1300900297E014F0900297E0FFEF70F280025B
:109A230080EEC2ED78A2760078A2E6FFEFC394023F
:109A33004003029B0F753500E535C39408505E90D3
:109A4300003EE0FFEF20E704C2EF8002D2EF900276
:109A5300977402F0900297E014F0900297E0FFEF02
:109A630070F2800280EED2ED30EDFD800280F9903D
:109A730002977402F0900297E014F0900297E0FFCF
:109A8300EF70F2800280EEC2EDC2EF90003EE0FF85
:109A9300EF25E0FF90003EEFF00535809B900297A5
:109AA3007402F0900297E014F0900297E0FFEF70D9
:109AB300F2800280EEC2EED2EDD2EF30EDFD8002F5
:109AC30080F990029774C8F0900297E014F0900226
:109AD30097E0FFEF70047F0180027F0020EC047E9B
:109AE3000180027E00EE4FFFEF60DD800280D9909F
:109AF3000297E0FFEF70069002DEE004F0D2EEC2C0
:109B0300ED90003EE4F078A206029A2B900297743F
:109B130002F0900297E014F0900297E0FFEF70F2EA
:109B2300800280EED2ED30EDFD800280F990029745
:109B33007402F0900297E014F0900297E0FFEF7048
:109B4300F2800280EED2EF9002977402F0900297B7
:109B5300E014F0900297E0FFEF70F2800280EE9045
:109B6300003E74D1F09002977402F0900297E014D3
:109B7300F0900297E0FFEF70F2800280EEC2EF9068
:109B830002977402F0900297E014F0900297E0FFBE
:109B9300EF70F2800280EEC2ED9002977402F090B3
:109BA3000297E014F0900297E0FFEF70F2800280DA
:109BB300EE753500E535C39408505E90003EE0FF36
:109BC300EF20E704C2EF8002D2EF9002977402F015
:109BD300900297E014F0900297E0FFEF70F280029A
:109BE30080EED2ED9002977402F030EDFD8002809A
:109BF300F9900297E014F0900297E0FFEF70F28083
:109C03000280EEC2EDC2EF90003EE0FFEF25E0FFE1
:109C130090003EEFF00535809B9002977402F09020
:109C23000297E014F0900297E0FFEF70F280028059
:109C3300EEC2EED2EFD2ED9002977402F030EDFD5A
:109C4300800280F9900297E014F0900297E0FFEF12
:109C530070F2800280EE90029774C8F0900297E051
:109C630014F0900297E0FFEF70047F0180027F0001
:109C730020EC047E0180027E00EE4FFFEF60DD806A
:109C83000280D9900297E0FFEF70069002DEE004B5
:109C9300F0D2EEC2ED9002977402F0900297E014B6
:109CA300F0900297E0FFEF70F2800280EE78A276E8
:109CB3000078A2E6FFEFC394084003029DC0753508
:109CC30000E535C394084003029D6FD2EFC2EED284
:109CD300ED30EDFD800280F99002977402F090025E
:109CE30097E014F0900297E0FFEF70F2800280EEAD
:109CF30020EC2E78A2E6FF74492FF582E43400F5B8
:109D030083E0FFEF25E0FFEFF078A2E6FF74492F31
:109D1300F582E43400F583E0FFEF54FEFFEFF080BB
:109D23002C78A2E6FF74492FF582E43400F583E032
:109D3300FFEF25E0FFEFF078A2E6FF74492FF582ED
:109D4300E43400F583E0FFEF4401FFEFF0C2ED9050
:109D530002977402F0900297E014F0900297E0FFEC
:109D6300EF70F2800280EE0535029CC4C2EF78A248
:109D7300E6FFEFB40702D2EFD2EED2ED30EDFD8075
:109D83000280F99002977402F0900297E014F09029
:109D93000297E0FFEF70F2800280EEC2EDC2EE9018
:109DA30002977402F0900297E014F0900297E0FF9C
:109DB300EF70F2800280EE78A206029CB4D2EE909D
:109DC30002977402F0900297E014F0900297E0FF7C
:109DD300EF70F2800280EEC2EF9002977402F0906F
:109DE3000297E014F0900297E0FFEF70F280028098
:109DF300EED2ED30EDFD800280F99002977402F00F
:109E0300900297E014F0900297E0FFEF70F2800267
:109E130080EED2EF9002C0E0FF900046EFF0900298
:109E2300C1E0FF900047EFF09002C2E0FF900048CE
:109E3300EFF09000457411F09002BF740AF0D2B6AF
:109E43007893E6FF7893E6FEEE2FFF789DEFF675A5
:109E530034149002BFE0FFEF2406F533E53304FF2B
:059E6300900042EFF049
:019E680022D7
:0589E100C0D075D000BC
:1089E60090003CE4F090003DE4F0C2ACC28EC2AF11
:1089F6007580FF75A04075AF8120B208752E007591
:108A06002F0080F575A80075B808C2AF30C209C23C
:108A1600AFD2C075C010C2C2C2A4789412AC2100F5
:108A2600000000789812AC210000000078A312AC78
:108A3600210000000078A712AC2100000000C21639
:108A4600C2187536007537007538007539007531EE
:108A5600007532FF754300754400753C00753D0096
:108A6600753E00753F00C201C213C214C20D788064
:108A76007600087600787E7600087600788F760095
:108A8600087600752E00752F009002DFE4F075342D
:108A960000C219D2059002E3E4F0A3E4F0789C76D4
:108AA60001C2B612B2C175C70075C60775B90175A0
:108AB600C7007893A6BD7893E6FFEFD3943F4004B2
:108AC6007893763F7893E6FF7893EF26F67893E6E9
:108AD600FFEF700478937601E5BFB4CC0585BF300F
:108AE60080037530FF7530CCE5BCB46408754E0163
:108AF600754F018006754EFF754FFF75C70075C629
:108B06000675B90175C70085BC47E547B4FF03750F
:108B1600473FC20AE5BD7002D20AC20BE5BFB404E4
:108B260002D20B75C70075C61475B90175C70090DA
:108B360002E0E5BCF0900298E5BDF0900298E0FFF7
:108B46009002E0E0FEEEC39F400C900298740AF09B
:108B56009002E07403F09002E1E5BEF0900299E520
:108B6600BFF0900299E0FF9002E1E0FEEEC39F4065
:108B76000C900299740AF09002E17403F09002E8F6
:108B8600E4F0A3E4F0758DF3758BD29002E6E4F081
:108B9600A3E4F0753500E535C3940D4003028CD28D
:108BA600AF35EFC454F02480F582E43406F583E053
:108BB600FFEF64FF7003028CCDAF35EFC454F02491
:108BC60081F582E43406F583E0FFEFB48440AF35E7
:108BD600EFC454F0248BF582E43406F583E0FFE419
:108BE600FCFDFE8F588E578D568C55AF58AE57AD3F
:108BF60056AC557B907A017900780012AA788F5886
:108C06008E578D568C55E54EB4010385354EAF35DE
:108C1600EFC454F02481F582E43406F583E0FFEFD7
:108C2600B48840AF35EFC454F0248BF582E43406A3
:108C3600F583E0FFE4FCFDFE8F538E528D518C5080
:108C4600AF53AE52AD51AC507B907A0179007800AB
:108C560012AA788F538E528D518C50E54FB4010372
:108C660085354FAF35EFC454F02481F582E43406E0
:108C7600F583E0FFEFB4601BAF35EFC454F02487F3
:108C8600F582E43406F583E0FF7E009002E6EEF01E
:108C9600A3EFF0AF35EFC454F02487F582E4340631
:108CA600F583E0FFEF540FFFEFB4051BAF35EFC4BC
:108CB60054F02482F582E43406F583E0FFEF30E4D5
:108CC60004D2008002C2000535028B9C753500E592
:108CD60035C3940D5016AF35EFC454F0248BF5828E
:108CE600E43406F58374FFF0053580E378A2760058
:108CF600753500E535C3940D4003028DA9AF35EFF8
:108D0600C454F02480F582E43406F583E0FFEF6472
:108D1600FF7003028DA4AF35EFC454F0248BF582A7
:108D2600E43406F58374FFF0788D7600788DE6FFDF
:108D3600EFC394155068788DE6FFEF25E024B4F56F
:108D460082E43407F583E0FFEF64FF604CAF35EF54
:108D5600C454F02480F582E43406F583E0FF788D70
:108D6600E6FEEE25E024B4F582E43407F583E0FE62
:108D7600EE6F7025788DE6FFEF25E024B5F582E4E9
:108D86003407F583E0FFAE35EEC454F0248BF5824C
:108D9600E43406F583EFF08005788D06808E053580
:108DA600028CF9127929AF807E008E318F32788657
:108DB600E6FF7E00EE5531FEEF5532FF7886E6FD82
:108DC6007C00EF6D7002EE6C7004D2068002C20663
:108DD600788CE6FF7E00EE5531FEEF5532FF788C3B
:108DE600E6FD7C00EF6D7002EE6C7004D207800227
:108DF600C207A2069211A2079212D2177F00120092
:108E060036C2179002B8E4F090029AE4F0789FE632
:108E1600FE08E6FFE4FCFD90025312AC15C28E7507
:108E26008BD2758DF3C28FD2ABD28ED2AFD2BCD2DB
:108E3600AEAE2EAF2FE4FCFD7BE87AFD790078001C
:108E4600D312ABA3400A052FE52F7002052E80E151
:108E5600753405D2AC201A1DE5D770047F01800257
:108E66007F00EF30E6069002E5E004F0C2AFD2C024
:108E760075C032D2AF9002E5E0FFEFD394644006AE
:108E86009002B9743CF09002DEE0FFEFD3946440A8
:108E9600069002B9740AF09002DCE0FFEFD3946406
:108EA60040059002B9E4F0900296E004F070069056
:108EB6000295E004F09002B9E0FF7E00900295E092
:108EC600FCA3E0FDC3ED9FEC9E4013300208300882
:108ED60005A2A4B392A4900295E4F0A3E4F0900254
:108EE600DFE0FFEF640A6003028F8C754525753558
:108EF60000E535C394075079AF35EF25E025E0242A
:108F06009CF582E43402F583E0FCA3E0FDA3E0FED9
:108F1600A3E0FF7BF07AFF790F7800D312ABB9405C
:108F260035AF35EF25E025E0249CF582E43402F5E3
:108F360083E0FCA3E0FDA3E0FEA3E0FF780212AB12
:108F4600CAAB35EB25E025E024C0F582E43401F513
:108F56008312AC158017AF35EF25E025E024C0F568
:108F660082E43401F58312AC3A0000FFFF05358038
:108F760080753500E535C3940B500EAF35120036BB
:108F8600053580F0800375452530B2089002DFE094
:108F960004F080069002DCE004F0200E0302911932
:108FA600C2ACA2B2E433FFE540B402047E01800203
:108FB6007E00EE5FFFEF7003029112752A00E52A2C
:108FC600C3953340030290EDE52C1313543FFF7E07
:108FD600008FC7E52DAE2C7802CEC313CE13D8F979
:108FE600FF8FC675B9017E00E52D5403FFEF4E7065
:108FF600047F0180027F00E52AC3953350047E0179
:1090060080027E00EE5FFFEF6019AF2A74462FF5EF
:1090160082E43400F583E5BCF0052DE52D700205EC
:109026002C052A7E00E52D5403FFEF64014E7004E3
:109036007F0180027F00E52AC3953350047E0180BC
:10904600027E00EE5FFFEF6019AF2A74462FF582AD
:10905600E43400F583E5BDF0052DE52D7002052C01
:10906600052A7E00E52D5403FFEF64024E70047F4F
:109076000180027F00E52AC3953350047E018002F9
:109086007E00EE5FFFEF6019AF2A74462FF582E48B
:109096003400F583E5BEF0052DE52D7002052C059F
:1090A6002A7E00E52D5403FFEF64034E70047F0112
:1090B60080027F00E52AC3953350047E0180027E3C
:1090C60000EE5FFFEF6019AF2A74462FF582E43495
:1090D60000F583E5BFF0052DE52D7002052C052A68
:1090E600152A052A028FC474062533F5337893E6CC
:1090F600FF7893E6FEEE2FFF789DEFF6D2B6753435
:1091060014E53304FF900042EFF0800375340AC281
:039116000ED2ACCA
:06911900200F03029495F3
:10911F00C2ACA2B2E433FFE540B401047E01800289
:10912F007E00EE5FFFEF700302928BE54D24F9FF97
:10913F00EF6533600675340A029491752B00E52BA9
:10914F00C395334003029288E52C1313543FFF7EDF
:10915F00008FC7E52DAE2C7802CEC313CE13D8F9EE
:10916F00FF8FC675B9017E00E52D5403FFEF4E70DA
:10917F00047F0180027F00E52BC3953350047E01ED
:10918F0080027E00EE5FFFEF601AAF2B74C02FF5E9
:10919F0082E43402F583E0FF8FBC052DE52D7002CC
:1091AF00052C052B7E00E52D5403FFEF64014E7057
:1091BF00047F0180027F00E52BC3953350047E01AD
:1091CF0080027E00EE5FFFEF601AAF2B74C02FF5A9
:1091DF0082E43402F583E0FF8FBD052DE52D70028B
:1091EF00052C052B7E00E52D5403FFEF64024E7016
:1091FF00047F0180027F00E52BC3953350047E016D
:10920F0080027E00EE5FFFEF601AAF2B74C02FF568
:10921F0082E43402F583E0FF8FBE052DE52D700249
:10922F00052C052B7E00E52D5403FFEF64034E70D4
:10923F00047F0180027F00E52BC3953350047E012C
:10924F0080027E00EE5FFFEF601AAF2B74C02FF528
:10925F0082E43402F583E0FF8FBF052DE52D700208
:10926F00052C052B152BC28E75B905D28EC28E75A6
:10927F00B902D28E052B02914D75340AA2B2E43396
:10928F00FFE540B403047E0180027E00EE5FFFEF36
:10929F007003029491E54D24F9FFEF653360067575
:1092AF00340A029491752B00E52BC39533400302CA
:1092BF009462E52C1313543FFF7E008FC7E52DAE4C
:1092CF002C7802CEC313CE13D8F9FF8FC675B90110
:1092DF007E00E52D5403FFEF4E70047F0180027F67
:1092EF0000E52BC3953350047E0180027E00EE5FB4
:1092FF00FFEF6036AF2B74C02FF582E43402F58395
:10930F00E0FF8FBCAF2B74C02FF582E43402F583DE
:10931F00E0FFAE2B74462EF582E43400F583EFF0B8
:10932F00052DE52D7002052C052B7E00E52D540330
:10933F00FFEF64014E70047F0180027F00E52BC3B5
:10934F00953350047E0180027E00EE5FFFEF6036A2
:10935F00AF2B74C02FF582E43402F583E0FF8FBD8D
:10936F00AF2B74C02FF582E43402F583E0FFAE2BF0
:10937F0074462EF582E43400F583EFF0052DE52DCC
:10938F007002052C052B7E00E52D5403FFEF6402C0
:10939F004E70047F0180027F00E52BC3953350048C
:1093AF007E0180027E00EE5FFFEF6036AF2B74C050
:1093BF002FF582E43402F583E0FF8FBEAF2B74C02C
:1093CF002FF582E43402F583E0FFAE2B74462EF5C1
:1093DF0082E43400F583EFF0052DE52D7002052CA6
:1093EF00052B7E00E52D5403FFEF64034E70047FC1
:1093FF000180027F00E52BC3953350047E0180026C
:10940F007E00EE5FFFEF6036AF2B74C02FF582E466
:10941F003402F583E0FF8FBFAF2B74C02FF582E4CA
:10942F003402F583E0FFAE2B74462EF582E4340050
:10943F00F583EFF0052DE52D7002052C052B152B6F
:10944F00C28E75B905D28EC28E75B902D28E052B1A
:10945F000292B775B904E5B9702574062533F53353
:10946F007893E6FF7893E6FEEE2FFF789DEFF6D226
:10947F00B6753414E53304FF900042EFF0800375A6
:06948F00340AC20FD2AC4A
:109495009002DFE0FFEF640B60030295A39002DF0B
:1094A500E4F0E5A475F00A84AFF0EF700F90003C8E
:1094B500E0FFEFB41E0690003C740AF0E5A475F0D9
:1094C5000A84AFF0EFB4090E90003CE0FFEF7006A0
:1094D50090003C741EF0C2AC120003D219D2AC90BD
:1094E50002DDE004F09002DDE0FFEFD394005003CD
:1094F5000295859002DD7401F0E534640560030290
:109505009585300A7B753428D2B675400275331AB5
:1095150078A1760078A1E6FFEFC39533502578A1B1
:10952500E6FF74C02FF582E43400F583E0FF78A1EF
:10953500E6FE74462EF582E43400F583EFF078A15B
:109545000680D19002BA747EF0E5474480FF900210
:10955500BBEFF09002BC7407F09002BD7402F0906E
:1095650002BEE4F09002BFE533F074062533F5330F
:10957500E53304FF900042EFF0789C760175997E03
:1095850090003DE0FFEFD39432500690003DE0049B
:10959500F090003DE0FFEFD394324002D208E5455C
:0A95A5007003028E5B80F7028E5BFC
:0395AF00D0D022F7
:10792900781A760D788676007889760078877600D9
:107939007888760090001FE4F0781AE6FF90001F1F
:10794900E0FEEEC39F4003027A1790001FE0FF8F0D
:1079590019AF19EFC454F02489F582E43406F5838C
:10796900E0FF8F18AF19EFC454F02481F582E43495
:1079790006F583E0FFEFB48824E518B41504788789
:107989007680E518B4160478877640E518B41904AA
:1079990078877620E518B41A0478877610AF19EF3E
:1079A900C454F02481F582E43406F583E0FFEFB492
:1079B9008424E518B4150478887680E518B416048B
:1079C90078887640E518B4190478887620E518B4E3
:1079D9001A0478887610AF19EFC454F02481F5821F
:1079E900E43406F583E0FFEFB48C1AE518B4170800
:1079F90078867680788C7640E518B41B0878867688
:107A090020788C761090001FE004F00279429000F3
:107A19001D74D0F0C2EF90001C7402F090001CE0BD
:107A290014F090001CE0FFEF70F2800280EEC2EDCE
:107A390090001FE4F090001FE0FFEFC394024003A1
:107A4900027B3190001EE4F090001EE0FFEFC3942A
:107A590008506290001DE0FFEF20E704C2EF8002AA
:107A6900D2EF90001C7402F090001CE014F090001A
:107A79001CE0FFEF70F2800280EED2ED30EDFD8068
:107A89000280F990001C7402F090001CE014F09040
:107A9900001CE0FFEF70F2800280EEC2EDC2EF90B1
:107AA900001DE0FFEF25E0FF90001DEFF090001EA4
:107AB900E004F0809390001C7402F090001CE01424
:107AC900F090001CE0FFEF70F2800280EEC2EED26F
:107AD900EDD2EF30EDFD800280F990001C74C8F002
:107AE90090001CE014F090001CE0FFEF70047F018F
:107AF90080027F0020EC047E0180027E00EE4FFFB1
:107B0900EF60DD800280D990001CE0FFEF700690E5
:107B190002DEE004F0D2EEC2ED90001D741AF0907E
:107B2900001FE004F0027A3E90001C7402F09000FD
:107B39001CE014F090001CE0FFEF70F2800280EE70
:107B4900D2ED30EDFD800280F990001C7402F090B6
:107B5900001CE014F090001CE0FFEF70F28002803E
:107B6900EED2EF90001C7402F090001CE014F0902B
:107B7900001CE0FFEF70F2800280EE90001D74D1CE
:107B8900F090001C7402F090001CE014F090001CAE
:107B9900E0FFEF70F2800280EEC2EF90001C7402E9
:107BA900F090001CE014F090001CE0FFEF70F280F0
:107BB9000280EEC2ED90001C7402F090001CE014EB
:107BC900F090001CE0FFEF70F2800280EE90001E42
:107BD900E4F090001EE0FFEFC39408506290001D8E
:107BE900E0FFEF20E704C2EF8002D2EF90001C749F
:107BF90002F090001CE014F090001CE0FFEF70F21E
:107C0900800280EED2ED90001C7402F030EDFD8010
:107C19000280F990001CE014F090001CE0FFEF7066
:107C2900F2800280EEC2EDC2EF90001DE0FFEF2569
:107C3900E0FF90001DEFF090001EE004F0809390AB
:107C4900001C7402F090001CE014F090001CE0FF8E
:107C5900EF70F2800280EEC2EED2EFD2ED90001CFE
:107C69007402F030EDFD800280F990001CE014F000
:107C790090001CE0FFEF70F2800280EE90001C740F
:107C8900C8F090001CE014F090001CE0FFEF7004B5
:107C99007F0180027F0020EC047E0180027E00EEDD
:107CA9004FFFEF60DD800280D990001CE0FFEF708C
:107CB900069002DEE004F0D2EEC2ED90001C7402E0
:107CC900F090001CE014F090001CE0FFEF70F280CF
:107CD9000280EE90001FE4F090001FE0FFEFC394D4
:107CE900124003027E0090001EE4F090001EE0FFA7
:107CF900EFC394084003027DABD2EFC2EED2ED3060
:107D0900EDFD800280F990001C7402F090001CE0E7
:107D190014F090001CE0FFEF70F2800280EE20EC7E
:107D29003090001FE0FF74282FF582E43400F583BA
:107D3900E0FFEF25E0FFEFF090001FE0FF74282F30
:107D4900F582E43400F583E0FFEF54FEFFEFF080A5
:107D59002E90001FE0FF74282FF582E43400F5838C
:107D6900E0FFEF25E0FFEFF090001FE0FF74282F00
:107D7900F582E43400F583E0FFEF4401FFEFF0C240
:107D8900ED90001C7402F090001CE014F090001CAF
:107D9900E0FFEF70F2800280EE90001EE004F00236
:107DA9007CF4C2EF90001FE0FFEFB41102D2EFD2D2
:107DB900EED2ED30EDFD800280F990001C7402F0E6
:107DC90090001CE014F090001CE0FFEF70F28002BC
:107DD90080EEC2EDC2EE90001C7402F090001CE02F
:107DE90014F090001CE0FFEF70F2800280EE90002A
:107DF9001FE004F0027CE1D2EE90001C7402F090C6
:107E0900001CE014F090001CE0FFEF70F28002808B
:107E1900EEC2EF90001C7402F090001CE014F09088
:107E2900001CE0FFEF70F2800280EED2ED30EDFD34
:107E3900800280F990001C7402F090001CE014F09C
:107E490090001CE0FFEF70F2800280EED2EF90000C
:107E590028E0FF7E00EF7F00FE900029E0FD7C0016
:107E6900EE4CFEEF4DFF789FEEF608EFF690002AF4
:107E7900E0FFE4FCFDFE78E812AC0978E812ABF00B
:107E8900780812ABDD78E812AC0978E812ABFC90FF
:107E9900002BE0FFE4FCFDFEEB2FFFEA3EFEE93D8F
:107EA900FDE83CFC78E812AC0978E812ABF07808F8
:107EB90012ABDD78E812AC0978E812ABFC90002C23
:107EC900E0FFE4FCFDFEEB2FFFEA3EFEE93DFDE8A5
:107ED9003CFC78E812AC0978E812ABF0780812ABF0
:107EE900DD78E812AC0978E812ABFC90002DE0FFD0
:107EF900E4FCFDFEEB2FFFEA3EFEE93DFDE83CFC1C
:107F090078E812AC0990002EE0FFE4FCFDFE78EC65
:107F190012AC0978EC12ABF0780812ABDD78EC12F0
:107F2900AC0978EC12ABFC90002FE0FFE4FCFDFEFD
:107F3900EB2FFFEA3EFEE93DFDE83CFC78EC12AC94
:107F49000978EC12ABF0780812ABDD78EC12AC09C9
:107F590078EC12ABFC900030E0FFE4FCFDFEEB2F67
:107F6900FFEA3EFEE93DFDE83CFC78EC12AC0978FD
:107F7900EC12ABF0780812ABDD78EC12AC0978ECB6
:107F890012ABFC900031E0FFE4FCFDFEEB2FFFEAB1
:107F99003EFEE93DFDE83CFC78EC12AC099000326C
:107FA900E0FF7E00EF7F00FE900033E0FD7C00EEF5
:107FB9004CFEEF4DFF900291EEF0A3EFF0900034EC
:107FC900E0FF7E00EF7F00FE900035E0FD7C00EED3
:107FD9004CFEEF4DFF900251EEF0A3EFF09000360A
:107FE900E0FFE4FCFDFE78E412AC0978E412ABF0A2
:107FF900780812ABDD78E412AC0978E412ABFC9096
:108009000037E0FFE4FCFDFEEB2FFFEA3EFEE93D11
:10801900FDE83CFC78E412AC0978E412ABF078088E
:1080290012ABDD78E412AC0978E412ABFC900038AD
:10803900E0FFE4FCFDFEEB2FFFEA3EFEE93DFDE833
:108049003CFC78E412AC0978E412ABF0780812AB86
:10805900DD78E412AC0978E412ABFC900039E0FF5A
:10806900E4FCFDFEEB2FFFEA3EFEE93DFDE83CFCAA
:1080790078E412AC0990001D74D0F0C2EF90001C96
:108089007402F090001CE014F090001CE0FFEF7007
:10809900F2800280EEC2ED90001FE4F090001FE034
:1080A900FFEFC39402400302819890001EE4F09010
:1080B900001EE0FFEFC39408506290001DE0FFEF3F
:1080C90020E704C2EF8002D2EF90001C7402F09006
:1080D900001CE014F090001CE0FFEF70F2800280B9
:1080E900EED2ED30EDFD800280F990001C7402F0B3
:1080F90090001CE014F090001CE0FFEF70F2800289
:1081090080EEC2EDC2EF90001DE0FFEF25E0FF9089
:10811900001DEFF090001EE004F0809390001C74A5
:1081290002F090001CE014F090001CE0FFEF70F2E8
:10813900800280EEC2EED2EDD2EF30EDFD800280FA
:10814900F990001C74C8F090001CE014F090001C19
:10815900E0FFEF70047F0180027F0020EC047E01C4
:1081690080027E00EE4FFFEF60DD800280D9900033
:108179001CE0FFEF70069002DEE004F0D2EEC2EDE3
:1081890090001D7433F090001FE004F00280A59068
:10819900001C7402F090001CE014F090001CE0FF39
:1081A900EF70F2800280EED2ED30EDFD800280F9B1
:1081B90090001C7402F090001CE014F090001CE088
:1081C900FFEF70F2800280EED2EF90001C7402F093
:1081D90090001CE014F090001CE0FFEF70F28002A8
:1081E90080EE90001D74D1F090001C7402F0900094
:1081F9001CE014F090001CE0FFEF70F2800280EEAA
:10820900C2EF90001C7402F090001CE014F0900082
:108219001CE0FFEF70F2800280EEC2ED90001C744A
:1082290002F090001CE014F090001CE0FFEF70F2E7
:10823900800280EE90001EE4F090001EE0FFEFC384
:108249009408506290001DE0FFEF20E704C2EF8020
:1082590002D2EF90001C7402F090001CE014F09020
:10826900001CE0FFEF70F2800280EED2ED90001C5E
:108279007402F030EDFD800280F990001CE014F0EA
:1082890090001CE0FFEF70F2800280EEC2EDC2EFB9
:1082990090001DE0FFEF25E0FF90001DEFF090003A
:1082A9001EE004F0809390001C7402F090001CE022
:1082B90014F090001CE0FFEF70F2800280EEC2EE35
:1082C900D2EFD2ED90001C7402F030EDFD800280F7
:1082D900F990001CE014F090001CE0FFEF70F280B0
:1082E9000280EE90001C74C8F090001CE014F0901D
:1082F900001CE0FFEF70047F0180027F0020EC0486
:108309007E0180027E00EE4FFFEF60DD800280D9A2
:1083190090001CE0FFEF70069002DEE004F0D2EE60
:10832900C2ED90001C7402F090001CE014F0900063
:108339001CE0FFEF70F2800280EE90001FE4F090E5
:10834900001FE0FFEFC39403400302846790001EFF
:10835900E4F090001EE0FFEFC3940840030284128A
:10836900D2EFC2EED2ED30EDFD800280F990001C13
:108379007402F090001CE014F090001CE0FFEF7014
:10838900F2800280EE20EC3090001FE0FF74282F6D
:10839900F582E43400F583E0FFEF25E0FFEFF0908C
:1083A900001FE0FF74282FF582E43400F583E0FF15
:1083B900EF54FEFFEFF0802E90001FE0FF74282F8E
:1083C900F582E43400F583E0FFEF25E0FFEFF0905C
:1083D900001FE0FF74282FF582E43400F583E0FFE5
:1083E900EF4401FFEFF0C2ED90001C7402F0900021
:1083F9001CE014F090001CE0FFEF70F2800280EEA8
:1084090090001EE004F002835BC2EF90001FE0FFC2
:10841900EFB40202D2EFD2EED2ED30EDFD80028050
:10842900F990001C7402F090001CE014F090001CFC
:10843900E0FFEF70F2800280EEC2EDC2EE90001C08
:108449007402F090001CE014F090001CE0FFEF7043
:10845900F2800280EE90001FE004F0028348D2EE21
:1084690090001C7402F090001CE014F090001CE0D5
:10847900FFEF70F2800280EEC2EF90001C7402F0F0
:1084890090001CE014F090001CE0FFEF70F28002F5
:1084990080EED2ED30EDFD800280F990001C74026F
:1084A900F090001CE014F090001CE0FFEF70F280E7
:1084B9000280EED2EF900029E0FF7E00EF7F00FE00
:1084C90090002AE0FD7C00EE4CFEEF4DFF90028FFC
:1084D900EEF0A3EFF0900028E0FF900224EFF09077
:1084E9000224E0FFEF540CFFEF60047F0180027F5C
:1084F90000900224E0FEEE70047E0180027E00EF0F
:108509004EFF900224E0FEEEB4FF047E0180027E5D
:1085190000EE4FFFEF60069002247471F090001D89
:1085290074D0F0C2EF90001C7402F090001CE014AB
:10853900F090001CE0FFEF70F2800280EEC2ED9037
:10854900001FE4F090001FE0FFEFC3940240030214
:10855900863F90001EE4F090001EE0FFEFC39408F0
:10856900506290001DE0FFEF20E704C2EF8002D2C5
:10857900EF90001C7402F090001CE014F090001CB5
:10858900E0FFEF70F2800280EED2ED30EDFD800267
:1085990080F990001C7402F090001CE014F0900027
:1085A9001CE0FFEF70F2800280EEC2EDC2EF900096
:1085B9001DE0FFEF25E0FF90001DEFF090001EE0A9
:1085C90004F0809390001C7402F090001CE014F0F9
:1085D90090001CE0FFEF70F2800280EEC2EED2ED57
:1085E900D2EF30EDFD800280F990001C74C8F09044
:1085F900001CE014F090001CE0FFEF70047F018084
:10860900027F0020EC047E0180027E00EE4FFFEF26
:1086190060DD800280D990001CE0FFEF70069002B7
:10862900DEE004F0D2EEC2ED90001DE4F090001FF0
:10863900E004F002854D90001C7402F090001CE0EB
:1086490014F090001CE0FFEF70F2800280EED2ED92
:1086590030EDFD800280F990001C7402F090001C3E
:10866900E014F090001CE0FFEF70F2800280EED27F
:10867900EF90001C7402F090001CE014F090001CB4
:10868900E0FFEF70F2800280EE90001D74D1F0904F
:10869900001C7402F090001CE014F090001CE0FF34
:1086A900EF70F2800280EEC2EF90001C7402F0902D
:1086B900001CE014F090001CE0FFEF70F2800280D3
:1086C900EEC2ED90001C7402F090001CE014F090D2
:1086D900001CE0FFEF70F2800280EE90001EE4F0D3
:1086E90090001EE0FFEFC39408506290001DE0FF68
:1086F900EF20E704C2EF8002D2EF90001C7402F071
:1087090090001CE014F090001CE0FFEF70F2800272
:1087190080EED2ED90001C7402F030EDFD800280F5
:10872900F990001CE014F090001CE0FFEF70F2805B
:108739000280EEC2EDC2EF90001DE0FFEF25E0FFE1
:1087490090001DEFF090001EE004F0809390001C53
:108759007402F090001CE014F090001CE0FFEF7030
:10876900F2800280EEC2EED2EFD2ED90001C7402CC
:10877900F030EDFD800280F990001CE014F09000CB
:108789001CE0FFEF70F2800280EE90001C74C8F0CC
:1087990090001CE014F090001CE0FFEF70047F01D2
:1087A90080027F0020EC047E0180027E00EE4FFFF4
:1087B900EF60DD800280D990001CE0FFEF70069029
:1087C90002DEE004F0D2EEC2ED90001C7402F090DB
:1087D900001CE014F090001CE0FFEF70F2800280B2
:1087E900EE90001FE4F090001FE0FFEFC3940840F3
:1087F9000302890E90001EE4F090001EE0FFEFC313
:10880900940840030288B9D2EFC2EED2ED30EDFDF3
:10881900800280F990001C7402F090001CE014F0B2
:1088290090001CE0FFEF70F2800280EE20EC3090A7
:10883900001FE0FF74202FF582E43400F583E0FF88
:10884900EF25E0FFEFF090001FE0FF74202FF58285
:10885900E43400F583E0FFEF54FEFFEFF0802E9043
:10886900001FE0FF74202FF582E43400F583E0FF58
:10887900EF25E0FFEFF090001FE0FF74202FF58255
:10888900E43400F583E0FFEF4401FFEFF0C2ED901F
:10889900001C7402F090001CE014F090001CE0FF32
:1088A900EF70F2800280EE90001EE004F002880270
:1088B900C2EF90001FE0FFEFB40702D2EFD2EED271
:1088C900ED30EDFD800280F990001C7402F09000FB
:1088D9001CE014F090001CE0FFEF70F2800280EEC3
:1088E900C2EDC2EE90001C7402F090001CE014F07E
:1088F90090001CE0FFEF70F2800280EE90001FE014
:1089090004F00287EFD2EE90001C7402F090001C74
:10891900E014F090001CE0FFEF70F2800280EEC2DC
:10892900EF90001C7402F090001CE014F090001C01
:10893900E0FFEF70F2800280EED2ED30EDFD8002B3
:1089490080F990001C7402F090001CE014F0900073
:108959001CE0FFEF70F2800280EED2EF900020E081
:10896900FFEFC4540FFFEF75F00AA4FF900020E059
:10897900FEEE540FFEEF2EFF90001DEFF090001D4C
:10898900E0FF8FA3900021E0FFEFC4540FFFEF75C4
:10899900F00AA4FF900021E0FEEE540FFEEF2EFF37
:1089A90090001DEFF090001DE0FF8FA4900022E0E1
:1089B900FFEFC4540FFFEF75F00AA4FF900022E007
:1089C900FEEE540FFEEF2EFF90001DEFF090001DFC
:0789D900E0FF8FA575A1016D
:0189E0002274
:10B2C10075891175D700C2AFD2C075C072D2AFE512
:10B2D100D720E60575F83D80F675FD03D2EBD2ED7A
:10B2E100D2EED2EF75C830C2ADC2CAC2ACC2AE7521
:10B2F1009850758700759E84759D12900075E4F0D5
:10B30100A374C0F09000737404F0A3E4F090007291
:10B31100E4F0900072E0FFEFC39480400302B3EECB
:10B32100C2AF900075E0FEA3E0FFEEFF7E00EF5498
:10B3310003F5C7900075E0FEA3E0FF8FC675B90164
:10B3410075C700D2AFAFBC7E00EF7F00FEADBD7C04
:10B3510000EE4CFEEF4DFF900077EEF0A3EFF0AF63
:10B36100BE7E00EF7F00FEADBF7C00EE4CFEEF4DD8
:10B37100FF900079EEF0A3EFF0900077E0FEA3E0FC
:10B38100FF900073E0FCA3E0FD8D828C83C083C03D
:10B3910082900072E0FDD082D08375F002ED12AC94
:10B3A1006BEEF0A3EFF0900079E0FEA3E0FF9000D8
:10B3B10073E0FCA3E0FD8D828C83C083C08290008A
:10B3C10072E0FDD082D08375F002ED12AC6BA3A3C5
:10B3D100EEF0A3EFF0900076E004F07006900075B7
:10B3E100E004F0900072E02402F002B313900075C3
:10B3F1007401F0A3E4F09000737405F0A3E4F090FD
:10B401000072E4F0900072E0FFEFC3948040030209
:10B41100B4E0C2AF900075E0FEA3E0FFEEFF7E0056
:10B42100EF5403F5C7900075E0FEA3E0FF8FC675EA
:10B43100B90175C700D2AFAFBC7E00EF7F00FEAD92
:10B44100BD7C00EE4CFEEF4DFF900077EEF0A3EFD8
:10B45100F0AFBE7E00EF7F00FEADBF7C00EE4CFE84
:10B46100EF4DFF900079EEF0A3EFF0900077E0FE52
:10B47100A3E0FF900073E0FCA3E0FD8D828C83C00C
:10B4810083C082900072E0FDD082D08375F002ED1E
:10B4910012AC6BEEF0A3EFF0900079E0FEA3E0FFB9
:10B4A100900073E0FCA3E0FD8D828C83C083C08299
:10B4B100900072E0FDD082D08375F002ED12AC6B8A
:10B4C100A3A3EEF0A3EFF0900076E004F0700690F5
:10B4D1000075E004F0900072E02402F002B40590DF
:10B4E10000757401F0A37440F09000737406F0A32A
:10B4F100E4F0900072E4F0900072E0FFEFC39480FA
:10B50100400302B5D3C2AF900075E0FEA3E0FFEEA9
:10B51100FF7E00EF5403F5C7900075E0FEA3E0FF46
:10B521008FC675B90175C700D2AFAFBC7E00EF7F82
:10B5310000FEADBD7C00EE4CFEEF4DFF900077EEBE
:10B54100F0A3EFF0AFBE7E00EF7F00FEADBF7C0049
:10B55100EE4CFEEF4DFF900079EEF0A3EFF090007E
:10B5610077E0FEA3E0FF900073E0FCA3E0FD8D8295
:10B571008C83C083C082900072E0FDD082D083753D
:10B58100F002ED12AC6BEEF0A3EFF0900079E0FE6B
:10B59100A3E0FF900073E0FCA3E0FD8D828C83C0EB
:10B5A10083C082900072E0FDD082D08375F002EDFD
:10B5B10012AC6BA3A3EEF0A3EFF0900076E004F0E1
:10B5C1007006900075E004F0900072E02402F00231
:10B5D100B4F89000757401F0A37480F09000737456
:10B5E10007F0A3E4F0900072E4F0900072E0FFEF46
:10B5F100C39480400302B6C6C2AF900075E0FEA3BB
:10B60100E0FFEEFF7E00EF5403F5C7900075E0FE0A
:10B61100A3E0FF8FC675B90175C700D2AFAFBC7E7D
:10B6210000EF7F00FEADBD7C00EE4CFEEF4DFF90C4
:10B631000077EEF0A3EFF0AFBE7E00EF7F00FEAD2E
:10B64100BF7C00EE4CFEEF4DFF900079EEF0A3EFD2
:10B65100F0900077E0FEA3E0FF900073E0FCA3E030
:10B66100FD8D828C83C083C082900072E0FDD08208
:10B67100D08375F002ED12AC6BEEF0A3EFF0900009
:10B6810079E0FEA3E0FF900073E0FCA3E0FD8D8272
:10B691008C83C083C082900072E0FDD082D083751C
:10B6A100F002ED12AC6BA3A3EEF0A3EFF0900076E5
:10B6B100E004F07006900075E004F0900072E02460
:10B6C10002F002B5EB75E64075D41475D22775D139
:0EB6D1002430DFFDC2DF75D12530DFFDC2DF82
:01B6DF002248
:10BDCD000000000000000000000000000000000066
:10BDDD0000000000000001080280038804200528EF
:10BDED0000A000A8000006000608068006880620B0
:10BDFD00062800A000A800000000010802800388AA
:08BE0D000420052800A000A894
:10BCB20044024900000000410225004102260041E1
:10BCC2000227004102280004E00000000042029125
:10BCD2000000420251000042028F00004102240093
:10BCE200420220000042024D0000420222000042B5
:10BCF200024F00004402570000000042028D000083
:10BD02004202930000C11EC19D02F0000002F20037
:10BD12000004E80000000004EC0000000004E4005D
:07BD2200000000027C00009C
:05003600900062EFF0F4
:10003B00900063E4F0A3E4F078C3760078C412ACCC
:10004B00210000000078C8760008760075790075ED
:10005B00780075770075760078CA7600757A00752A
:10006B007B0078CB12AC2100000000900065E4F01F
:10007B00A3E4F0900067E4F0900068E4F078D076A9
:10008B000008760078D2760078D3760078D412AC5C
:0B009B002100000000201703020347B3
:1000A600754C00D215755400AF54EFC454F0248932
:1000B600F582E43406F583E0FF90006BEFF09000E4
:1000C6006BE0FFEF5403FFEF75F012A424CDF58229
:1000D600E434BDF583C083C08290006BE0FFEF136C
:1000E60013543FFFD082D08375F002EF12AC6BE45D
:1000F60093FE740193FF900069EEF0A3EFF0900079
:1001060069E0FEA3E0FFEF54B8FFE5A05457FEEE0A
:100116004FFF90006BEFF090006BE0FF8FA075D45F
:1001260003900069E0FEA3E0FFEEFF7E00EF44408F
:10013600F5E675D12A900067E4F0900067E0FFEFDE
:10014600C3940D400302032F900067E0FFEFC454F1
:10015600F02480F582E43406F583E0FF7E00900209
:10016600E6E0FCA3E0FDEF6D7002EE6C70047F012B
:1001760080027F009002E6E0FCA3E0FDED4C600407
:100186007E0180027E00EE5FFFEF70030202A89000
:100196000067E0FF75F030EFA42404F582E5F03443
:1001A60004F583E0FEA3E0FFEF4E60047F018002CA
:1001B6007F00900067E0FE75F030EEA42406F5821D
:1001C600E5F03404F583E0FCA3E0FDED4C60047E2D
:1001D6000180027E00EE5FFFEF603D900067E0FF6A
:1001E60075F030EFA42406F582E5F03404F583E0DB
:1001F600FCA3E0FDE412A9697B007A0079C078408F
:1002060012A7517B007A0079E0784012A85A8F79BC
:100216008E788D778C76806C900067E0FF75F03075
:10022600EFA4240AF582E5F03404F583E0FEA3E0AA
:10023600FFEF64FF7003EE64FF700E75790075784A
:1002460000757700757600803B900067E0FF75F0DB
:1002560030EFA4240AF582E5F03404F583E0FCA32C
:10026600E0FDE412A9697B007A0079C0784012A704
:10027600517B007A0079E0784012A85A8F798E78FF
:100286008D778C767F007E007D007C3FAB79AA78E7
:10029600A977A87612A66012A9A29002E6EEF0A3AC
:1002A600EFF0900067E0FFEF25E02400F582E434EC
:1002B60002F583E4F0A3E4F0900067E0FFEF25E0A9
:1002C60025E024C0F582E43401F58312AC3A00003F
:1002D6000000900067E0FFEF25E025E02400F582AE
:1002E600E43401F58312AC3A00000000900067E0A8
:1002F600FFEF25E025E02440F582E43401F5831282
:10030600AC3A00000000900067E0FFEF25E025E032
:100316002480F582E43401F58312AC3A0000000033
:10032600900067E004F00201409002EAE4F0A3E4E2
:10033600F0789FE6FE08E6FF90021EEEF0A3EFF0CF
:010346002294
:0F0347009002E8E0FEA3E0FFEF4E7003020F8F7D
:100356009002E8E0FEA3E0FFEF20E00302052E2076
:10036600050302052EC20578E412AC210000000048
:10037600788F76000876009002E3E4F0A3E4F0902C
:1003860002EAE4F0A3E4F09002E9E0FFEF54FEFF96
:100396009002E9EFF090006974D0F090006A74283A
:1003A600F078E412ABF0781812ABCA90006BEFF05D
:1003B60078E412ABF0781012ABCA90006CEFF078CC
:1003C600E412ABF0780812ABCA90006DEFF078E457
:1003D60012ABF090006EEFF0C2EF9002977402F04D
:1003E600900297E014F0900297E0FFEF70F280021F
:1003F60080EEC2ED756300E563C394064003020414
:10040600F1756400E564C394085077AF6374692F8F
:10041600F582E43400F583E0FFEF20E704C2EF80C5
:1004260002D2EF9002977402F0900297E014F090D7
:100436000297E0FFEF70F2800280EED2ED30EDFD24
:10044600800280F99002977402F0900297E014F00F
:10045600900297E0FFEF70F2800280EEC2ED90000E
:1004660067E0FFEF64076014AF6374692FF582E4F9
:100476003400F583E0FFEF25E0FFEFF0C2EF0564FF
:1004860080829002977402F0900297E014F0900236
:1004960097E0FFEF70F2800280EED2EFC2EED2ED6F
:1004A60030EDFD800280F990029774C8F0900297B3
:1004B600E014F0900297E0FFEF70047F0180027F66
:1004C6000020EC047E0180027E00EE4FFFEF60DD2F
:1004D600800280D9900297E0FFEF70069002DEE07E
:1004E60004F0D2EEC2ED05630203FD90029774029A
:1004F600F0900297E014F0900297E0FFEF70F28020
:100506000280EED2ED30EDFD800280F99002977404
:1005160002F0900297E014F0900297E0FFEF70F27D
:10052600800280EED2EFD2059002E8E0FEA3E0FF63
:10053600EF20E1030206F62005030206F6C205785F
:10054600E812AC210000000078F0760008760090F2
:1005560002E9E0FFEF54FDFF9002E9EFF090006939
:1005660074D0F090006A741CF078E812ABF078183A
:1005760012ABCA90006BEFF078E812ABF07810126D
:10058600ABCA90006CEFF078E812ABF0780812ABCB
:10059600CA90006DEFF078E812ABF090006EEFF0C5
:1005A600C2EF9002977402F0900297E014F0900266
:1005B60097E0FFEF70F2800280EEC2ED756300E512
:1005C60063C3940640030206B9756400E564C394E8
:1005D600085077AF6374692FF582E43400F583E041
:1005E600FFEF20E704C2EF8002D2EF900297740279
:1005F600F0900297E014F0900297E0FFEF70F2801F
:100606000280EED2ED30EDFD800280F99002977403
:1006160002F0900297E014F0900297E0FFEF70F27C
:10062600800280EEC2ED900067E0FFEF6407601481
:10063600AF6374692FF582E43400F583E0FFEF259C
:10064600E0FFEFF0C2EF056480829002977402F03B
:10065600900297E014F0900297E0FFEF70F28002AC
:1006660080EED2EFC2EED2ED30EDFD800280F99041
:10067600029774C8F0900297E014F0900297E0FF9A
:10068600EF70047F0180027F0020EC047E0180026F
:100696007E00EE4FFFEF60DD800280D9900297E08A
:1006A600FFEF70069002DEE004F0D2EEC2ED0563C5
:1006B6000205C59002977402F0900297E014F0903C
:1006C6000297E0FFEF70F2800280EED2ED30EDFD92
:1006D600800280F99002977402F0900297E014F07D
:1006E600900297E0FFEF70F2800280EED2EFD20523
:1006F6009002E8E0FEA3E0FFEF20E2030208BE203E
:1007060005030208BEC20578EC12AC210000000009
:1007160078F276000876009002E9E0FFEF54FBFFDE
:100726009002E9EFF090006974D0F090006A7420AE
:10073600F078EC12ABF0781812ABCA90006BEFF0C1
:1007460078EC12ABF0781012ABCA90006CEFF07830
:10075600EC12ABF0780812ABCA90006DEFF078ECB3
:1007660012ABF090006EEFF0C2EF9002977402F0B9
:10077600900297E014F0900297E0FFEF70F280028B
:1007860080EEC2ED756300E563C39406400302087C
:1007960081756400E564C394085077AF6374692F6C
:1007A600F582E43400F583E0FFEF20E704C2EF8032
:1007B60002D2EF9002977402F0900297E014F09044
:1007C6000297E0FFEF70F2800280EED2ED30EDFD91
:1007D600800280F99002977402F0900297E014F07C
:1007E600900297E0FFEF70F2800280EEC2ED90007B
:1007F60067E0FFEF64076014AF6374692FF582E466
:100806003400F583E0FFEF25E0FFEFF0C2EF05646B
:1008160080829002977402F0900297E014F09002A2
:1008260097E0FFEF70F2800280EED2EFC2EED2EDDB
:1008360030EDFD800280F990029774C8F09002971F
:10084600E014F0900297E0FFEF70047F0180027FD2
:100856000020EC047E0180027E00EE4FFFEF60DD9B
:10086600800280D9900297E0FFEF70069002DEE0EA
:1008760004F0D2EEC2ED056302078D900297740272
:10088600F0900297E014F0900297E0FFEF70F2808C
:100896000280EED2ED30EDFD800280F99002977471
:1008A60002F0900297E014F0900297E0FFEF70F2EA
:1008B600800280EED2EFD2059002E8E0FEA3E0FFD0
:1008C600EF30E510B20A9002E9E0FFEF54DFFF9047
:1008D60002E9EFF09002E8E0FEA3E0FFEE20E3037A
:0908E600020DE6200503020DE6F7
:1008EF00755900755A00755E00755D00755C007571
:1008FF005B00756200756100756000755F00C20571
:10090F00755900E559C3940D501AAF59EFC454F0FF
:10091F002481F582E43406F583E0FFEF648C6004F4
:10092F00055980DFE559C3940D4003020C60AF59A0
:10093F0075F030EFA42406F582E5F03404F583C09A
:10094F0083C082AF5AD082D08375F002EF12AC6BA6
:10095F00E0FEA3E0FFC3E57D9FE57C9E5003020C04
:01096F003255
:1009700078AB12AC2100000000AF5975F030EFA445
:100980002403F582E5F03404F583E0FF78D2EFF636
:10099000AF5975F030EFA4240AF582E5F03404F580
:1009A00083C083C082AF5AD082D08375F002EF1229
:1009B000AC6BE0FEA3E0FFD3E57D9FE57C9E4004A9
:1009C0007F0180027F0078D2E6FEE55AC39E500484
:1009D0007E0180027E00EE5FFFEF6006055A055A39
:1009E00080AE78D2E6FFE55AC39F4033AF5975F029
:1009F00030EFA42404F582E5F03404F583C083C00D
:100A00008278D2E6FFD082D08375F002EF12AC6B11
:100A1000E0FEA3E0FF789FEEF608EFF6020C60AF71
:100A20005975F030EFA4240AF582E5F03404F5831B
:100A3000C083C082AF5AD082D08375F002EF12AC6F
:100A40006BE0FEA3E0FFE57D6F7003E57C6E700355
:100A5000020C02AF5975F030EFA42404F582E5F0E2
:100A60003404F583C083C082AF5AD082D08375F03E
:100A700002EF12AC6BE0FEA3E0FFAD5975F030ED74
:100A8000A42408F582E5F03404F583C083C082AD68
:100A90005AD082D08375F002ED12AC6BE0FCA3E07B
:100AA000FDC3ED9FFFEC9EFEE4FCFD8F5E8E5D8D31
:100AB0005C8C5BAF5975F030EFA42406F582E5F04D
:100AC0003404F583C083C082AF5AD082D08375F0DE
:100AD00002EF12AC6BE0FEA3E0FFC3E57D9FFFE5F4
:100AE0007C9EFEE4FCFD8F628E618D608C5FAF5E4C
:100AF000AE5DAD5CAC5BAB62AA61A960A85F12AAF7
:100B0000788F5E8E5D8D5C8C5BAF5975F030EFA495
:100B10002406F582E5F03404F583C083C082AF5A21
:100B2000D082D08375F002EF12AC6BE0FEA3E0FF41
:100B3000AD5975F030EDA4240AF582E5F03404F5E2
:100B400083C083C082AD5AD082D08375F002ED128B
:100B5000AC6BE0FCA3E0FDC3ED9FFFEC9EFEE4FC6C
:100B6000FD78AB12AC09AF5EAE5DAD5CAC5BE41280
:100B7000A964ECC0E0EDC0E0EEC0E0EFC0E078AB0F
:100B800012ABF0E412A964C8ECC8C9EDC9CAEECA38
:100B9000CBEFCBD0E0FFD0E0FED0E0FDD0E0FC1208
:100BA000A85A8F798E788D778C767F007E007D00B5
:100BB0007C3FAB79AA78A977A87612A66012A9A281
:100BC0008F5E8E5D8D5C8C5BAE5DAF5EAD5975F0FA
:100BD00030EDA42404F582E5F03404F583C083C02D
:100BE00082AD5AD082D08375F002ED12AC6BE0FC7E
:100BF000A3E0FDEF2DFFEE3CFE789FEEF608EFF64A
:100C0000805EAF5975F030EFA42408F582E5F0342A
:100C100004F583C083C082AF5AD082D08375F002BE
:100C2000EF12AC6BE0FEA3E0FF789FEEF608EFF664
:100C3000802EAF5975F030EFA42404F582E5F0342E
:100C400004F583C083C082AF5AD082D08375F0028E
:100C5000EF12AC6BE0FEA3E0FF789FEEF608EFF634
:100C60009002E8E0FFEF54F7FF9002E8EFF0900009
:100C70006974D0F090006A741AF0789FE6FE08E676
:100C8000FFEEFF7E0090006BEFF0789FE6FE08E637
:100C9000FF90006CEFF0C2EF9002977402F09002A8
:100CA00097E014F0900297E0FFEF70F2800280EE80
:100CB000C2ED756300E563C394044003020DA9759A
:100CC0006400E564C394085077AF6374692FF582BC
:100CD000E43400F583E0FFEF20E704C2EF8002D2A6
:100CE000EF9002977402F0900297E014F090029750
:100CF000E0FFEF70F2800280EED2ED30EDFD800279
:100D000080F99002977402F0900297E014F090023C
:100D100097E0FFEF70F2800280EEC2ED900067E096
:100D2000FFEF64076014AF6374692FF582E4340049
:100D3000F583E0FFEF25E0FFEFF0C2EF056480826E
:100D40009002977402F0900297E014F0900297E0FE
:100D5000FFEF70F2800280EED2EFC2EED2ED30ED06
:100D6000FD800280F990029774C8F0900297E01419
:100D7000F0900297E0FFEF70047F0180027F002077
:100D8000EC047E0180027E00EE4FFFEF60DD80020A
:100D900080D9900297E0FFEF70069002DEE004F049
:100DA000D2EEC2ED0563020CB59002977402F0908A
:100DB0000297E014F0900297E0FFEF70F28002805B
:100DC000EED2ED30EDFD800280F99002977402F0D2
:100DD000900297E014F0900297E0FFEF70F280022B
:060DE00080EED2EFD20507
:100DE6009002E8E0FEA3E0FFEE20E403020F8F206E
:100DF6000503020F8FC205900251E57CF0A3E57D45
:100E0600F09002E8E0FFEF54EFFF9002E8EFF09079
:100E1600006974D0F090006A7426F0900251E0FEEA
:100E2600A3E0FFEEFF7E0090006BEFF0900251E032
:100E3600FEA3E0FF90006CEFF0C2EF900297740201
:100E4600F0900297E014F0900297E0FFEF70F280C6
:100E56000280EEC2ED756300E563C39404400302AD
:100E66000F52756400E564C394085077AF637469E4
:100E76002FF582E43400F583E0FFEF20E704C2EFAC
:100E86008002D2EF9002977402F0900297E014F07D
:100E9600900297E0FFEF70F2800280EED2ED30ED27
:100EA600FD800280F99002977402F0900297E01498
:100EB600F0900297E0FFEF70F2800280EEC2ED90B4
:100EC6000067E0FFEF64076014AF6374692FF58273
:100ED600E43400F583E0FFEF25E0FFEFF0C2EF0515
:100EE6006480829002977402F0900297E014F0906A
:100EF6000297E0FFEF70F2800280EED2EFC2EED2F0
:100F0600ED30EDFD800280F990029774C8F09002F2
:100F160097E014F0900297E0FFEF70047F018002E3
:100F26007F0020EC047E0180027E00EE4FFFEF6022
:100F3600DD800280D9900297E0FFEF70069002DE16
:100F4600E004F0D2EEC2ED0563020E5E90029774E5
:100F560002F0900297E014F0900297E0FFEF70F233
:100F6600800280EED2ED30EDFD800280F99002978E
:100F76007402F0900297E014F0900297E0FFEF7091
:090F8600F2800280EED2EFD205E8
:0D0F8F00900062E0FFEF640A6003025E283C
:100F9C00900062E4F09002B8E0FF90029AE0FEEE5E
:100FAC006F70030218F79002B8E0FFEF541FFFEFC9
:0D0FBC006407600302118E20050302118EF0
:100FC90090006FE4F0900224E0FFEF13921B90026F
:100FD90024E0FFEFA2E1921CA21C821B5010900298
:100FE90024E0FFEF54FDFF900224EFF0802F301B27
:100FF9001E900224E0FFEF4402FF900224EFF090DC
:101009000224E0FFEF54FEFF900224EFF0800E90DF
:101019000224E0FFEF4401FF900224EFF0C20590A3
:10102900006974D0F090006A7433F0900224E0FFF4
:1010390090006BEFF0C2EF9002977402F090029764
:10104900E014F0900297E0FFEF70F2800280EEC2A8
:10105900ED756500E565C39403400302115175669A
:1010690000E566C394085077AF6574692FF582E48B
:101079003400F583E0FFEF20E704C2EF8002D2EFEE
:101089009002977402F0900297E014F0900297E0B2
:10109900FFEF70F2800280EED2ED30EDFD8002802C
:1010A900F99002977402F0900297E014F090029779
:1010B900E0FFEF70F2800280EEC2ED90006FE0FF7A
:1010C900EF64076014AF6574692FF582E43400F5A5
:1010D90083E0FFEF25E0FFEFF0C2EF056680829025
:1010E90002977402F0900297E014F0900297E0FFE3
:1010F900EF70F2800280EED2EFC2EED2ED30EDFD5C
:10110900800280F990029774C8F0900297E014F079
:10111900900297E0FFEF70047F0180027F0020ECCE
:10112900047E0180027E00EE4FFFEF60DD800280C9
:10113900D9900297E0FFEF70069002DEE004F0D24A
:10114900EEC2ED056502105D9002977402F09002FF
:1011590097E014F0900297E0FFEF70F2800280EEC2
:10116900D2ED30EDFD800280F99002977402F09083
:101179000297E014F0900297E0FFEF70F28002808E
:05118900EED2EFD205DB
:10118E009002B8E0FFEF541FFFEF640660030213F6
:07119E004E20050302134E71
:1011A50090006FE4F0900224E0FFEF24FF921B9083
:1011B5000224E0FFEF6401FFEF24FF921C9002245C
:1011C500E0FFEFC4540FF5670567E567C454F0FF0A
:1011D500900224E0FEEE540FFEEF4EFF900224EF46
:1011E500F0C20590006974D0F090006A7433F090F5
:1011F5000224E0FF90006BEFF0C2EF9002977402BB
:10120500F0900297E014F0900297E0FFEF70F28003
:101215000280EEC2ED756700E567C39403400302E3
:101225001311756800E568C394085077AF67746952
:101235002FF582E43400F583E0FFEF20E704C2EFE9
:101245008002D2EF9002977402F0900297E014F0BA
:10125500900297E0FFEF70F2800280EED2ED30ED64
:10126500FD800280F99002977402F0900297E014D5
:10127500F0900297E0FFEF70F2800280EEC2ED90F1
:10128500006FE0FFEF64076014AF6774692FF582A4
:10129500E43400F583E0FFEF25E0FFEFF0C2EF0552
:1012A5006880829002977402F0900297E014F090A3
:1012B5000297E0FFEF70F2800280EED2EFC2EED22D
:1012C500ED30EDFD800280F990029774C8F0900230
:1012D50097E014F0900297E0FFEF70047F01800221
:1012E5007F0020EC047E0180027E00EE4FFFEF6060
:1012F500DD800280D9900297E0FFEF70069002DE54
:10130500E004F0D2EEC2ED056702121D900297745B
:1013150002F0900297E014F0900297E0FFEF70F270
:10132500800280EED2ED30EDFD800280F9900297CB
:101335007402F0900297E014F0900297E0FFEF70CE
:09134500F2800280EED2EFD20525
:10134E009002B8E0FFEF541FFFEFB40211789F76C2
:10135E000008760090025312AC3A00000000900292
:10136E00B8E0FFEF541FFFEF640160030216FC208C
:10137E0005030216FCC20578CA760D78CAE6FF7818
:10138E00D3EFF6900067E4F078CAE6FF900067E0CE
:10139E00FEEEC39F40030216FA900067E0FFEFC413
:1013AE0054F02487F582E43406F583E0FF78D2EF1B
:1013BE00F678D2E6FFEF645060030215589000678E
:1013CE00E0FFEF25E025E02480F582E43401F5838B
:1013DE00E0FCA3E0FDA3E0FEA3E0FF900251EEF0DF
:1013EE00A3EFF0756FD0757026900251E0FEA3E06A
:1013FE00FFEEFF7E008F71900251E0FEA3E0FF8FA3
:10140E0072C2EF9002977402F0900297E014F0907F
:10141E000297E0FFEF70F2800280EEC2ED756D0074
:10142E00E56DC39404400302151D756E00E56EC391
:10143E0094085072AF6D746F2FF8E6FFEF20E7043B
:10144E00C2EF8002D2EF9002977402F0900297E002
:10145E0014F0900297E0FFEF70F2800280EED2ED72
:10146E0030EDFD800280F99002977402F0900297A1
:10147E00E014F0900297E0FFEF70F2800280EEC26F
:10148E00ED900067E0FFEF64076015AF6D746F2F8E
:10149E00F8E8C0E0E6FFEF25E0FFD0E0F8C6EFC6C3
:1014AE00C2EF056E80879002977402F0900297E06B
:1014BE0014F0900297E0FFEF70F2800280EED2EF10
:1014CE00C2EED2ED30EDFD800280F990029774C825
:1014DE00F0900297E014F0900297E0FFEF70047F17
:1014EE000180027F0020EC047E0180027E00EE4F20
:1014FE00FFEF60DD800280D9900297E0FFEF70066B
:10150E009002DEE004F0D2EEC2ED056D02142E90D4
:10151E0002977402F0900297E014F0900297E0FFA9
:10152E00EF70F2800280EED2ED30EDFD800280F998
:10153E009002977402F0900297E014F0900297E0F8
:10154E00FFEF70F2800280EED2EF78D2E6FFEF640A
:10155E006060030216F1900067E0FFEF25E025E0E2
:10156E002480F582E43401F583E0FCA3E0FDA3E0E2
:10157E00FEA3E0FF900291EEF0A3EFF0756FD07531
:10158E007024900291E0FEA3E0FFEEFF7E008F71CB
:10159E00900291E0FEA3E0FF8F72C2EF900297746B
:1015AE0002F0900297E014F0900297E0FFEF70F2D5
:1015BE00800280EEC2ED756D00E56DC394044003AC
:1015CE000216B6756E00E56EC394085072AF6D7458
:1015DE006F2FF8E6FFEF20E704C2EF8002D2EF9004
:1015EE0002977402F0900297E014F0900297E0FFD9
:1015FE00EF70F2800280EED2ED30EDFD800280F9C8
:10160E009002977402F0900297E014F0900297E027
:10161E00FFEF70F2800280EEC2ED900067E0FFEF08
:10162E0064076015AF6D746F2FF8E8C0E0E6FFEF4A
:10163E0025E0FFD0E0F8C6EFC6C2EF056E808790BA
:10164E0002977402F0900297E014F0900297E0FF78
:10165E00EF70F2800280EED2EFC2EED2ED30EDFDF1
:10166E00800280F990029774C8F0900297E014F00F
:10167E00900297E0FFEF70047F0180027F0020EC64
:10168E00047E0180027E00EE4FFFEF60DD8002805F
:10169E00D9900297E0FFEF70069002DEE004F0D2E0
:1016AE00EEC2ED056D0215C79002977402F090021E
:1016BE0097E014F0900297E0FFEF70F2800280EE58
:1016CE00D2ED30EDFD800280F99002977402F09019
:1016DE000297E014F0900297E0FFEF70F280028024
:1016EE00EED2EF900067E004F0021396D20590025E
:1016FE00B8E0FFEF541FFFEF640560030218EDC260
:10170E000578CA760D78CAE6FF78D3EFF6900067B3
:10171E00E4F078CAE6FF900067E0FEEEC39F400358
:10172E000218EB900067E0FFEFC454F02487F582B7
:10173E00E43406F583E0FF78D2EFF678D2E6FFEFD9
:10174E00642060030218E2900067E0FFEF25E025B9
:10175E00E02480F582E43401F583E0FCA3E0FDA3F0
:10176E00E0FEA3E0FF90028FEEF0A3EFF0756FD0D6
:10177E0075703490028FE0FEA3E0FFEEFF7E008FC7
:10178E007190028FE0FEA3E0FF8F72C2EF9002977E
:10179E007402F0900297E014F0900297E0FFEF7061
:1017AE00F2800280EEC2ED756D00E56DC3940440CB
:1017BE00030218A7756E00E56EC394085072AF6DE4
:1017CE00746F2FF8E6FFEF20E704C2EF8002D2EF2E
:1017DE009002977402F0900297E014F0900297E056
:1017EE00FFEF70F2800280EED2ED30EDFD800280D0
:1017FE00F99002977402F0900297E014F09002971D
:10180E00E0FFEF70F2800280EEC2ED900067E0FF25
:10181E00EF64076015AF6D746F2FF8E8C0E0E6FF58
:10182E00EF25E0FFD0E0F8C6EFC6C2EF056E808769
:10183E009002977402F0900297E014F0900297E0F5
:10184E00FFEF70F2800280EED2EFC2EED2ED30EDFD
:10185E00FD800280F990029774C8F0900297E01410
:10186E00F0900297E0FFEF70047F0180027F00206E
:10187E00EC047E0180027E00EE4FFFEF60DD800201
:10188E0080D9900297E0FFEF70069002DEE004F040
:10189E00D2EEC2ED056D0217B89002977402F09069
:1018AE000297E014F0900297E0FFEF70F280028052
:1018BE00EED2ED30EDFD800280F99002977402F0C9
:1018CE00900297E014F0900297E0FFEF70F2800222
:1018DE0080EED2EF900067E004F0021720D2059060
:1018EE0002B8E0FF90029AEFF0900062E0FFEF2561
:1018FE00E024B4F582E43407F583E0FFEF64FF7073
:10190E000302573C900062E0FFEF25E024B5F5821C
:10191E00E43407F583E0FFEF131313541FFF78CF62
:10192E00EFF678CFE6FFEFC3941C400302573390D7
:10193E000062E0FFEF25E024B4F582E43407F5837E
:10194E00E0FFEFC39480401D900062E0FFEF25E0C2
:10195E0024B4F582E43407F583E0FFEF540FFFEF74
:10196E007003025733900062E0FFEF25E024B4F5D8
:10197E0082E43407F583E0FF900068EFF078CFE65D
:10198E00FF7E00EF2403FFEE3400FEC3EF941CEE47
:10199E006480948050047F0180027F00900068E094
:1019AE00FEEEB47F047E0180027E00EF5EFFEF60EC
:1019BE004478CFE6FF74002FF582E43400F583E51A
:1019CE00A5F078CFE6FF74012FF582E43400F5839D
:1019DE00E5A4F078CFE6FF74022FF582E43400F52B
:1019EE0083E5A3F078CFE6FF74032FF582E434008D
:1019FE00F583E5A2F0900068E0FFEFB4CC1B9002F7
:101A0E00E2E0FF78CFE6FE74002EF582E43400F5B6
:101A1E0083EFF09002E27401F0900068E0FFEFB403
:101A2E00402A900224E0FF78CFE6FE74002EF58265
:101A3E00E43400F583EFF09002B8E0FF78CFE6FED5
:101A4E0074012EF582E43400F583EFF0900068E027
:101A5E00FFEF540FFFEF64016003021B7078CA762C
:101A6E000D78CAE6FF78D3EFF6900067E4F078CAF7
:101A7E00E6FF900067E0FEEEC39F4003021B0D9051
:101A8E000067E0FFEFC454F02481F582E43406F5DC
:101A9E0083E0FFEFB484047F0180027F0090006733
:101AAE00E0FEEEC454F02481F582E43406F583E0C2
:101ABE00FEEEB488047E0180027E00EE4FFF9000A1
:101ACE0067E0FEEEC454F02480F582E43406F5831C
:101ADE00E0FE900068E0FDED54F0FDED6E70047ECA
:101AEE000180027E00EE5FFFEF600B900067E0FF6B
:101AFE0078D3EFF68009900067E004F0021A7C7844
:101B0E00CAE6FF78D3E6FEEE6F605778CFE6FF7435
:101B1E00002FF582E43400F583E0FFEF54FCFF90D4
:101B2E000225EFF078D3E6FFEFC454F02482F5825D
:101B3E00E43406F583E0FFEF5430FFEFC4540FFF9B
:101B4E00900225E0FEEF4EFF900225EFF090022569
:101B5E00E0FF78CFE6FE74002EF582E43400F583C4
:101B6E00EFF0900068E0FFEF540FFFEF64036003A7
:101B7E00021DBB78CA760D78CAE6FF78D3EFF690D1
:101B8E000067E4F078CAE6FF900067E0FEEEC39FC0
:101B9E005030900067E0FFEFC454F02486F582E4E5
:101BAE003406F583E0FF900068E0FEEF6E700B9058
:101BBE000067E0FF78D3EFF68008900067E004F04E
:101BCE0080C278CAE6FF78D3E6FEEE6F7003021D80
:011BDE00BB4B
:101BDF0078CFE6FF74002FF582E43400F583E0FF41
:101BEF00EF54FCFF900225EFF078D3E6FFEFC454DB
:101BFF00F02482F582E43406F583E0FFEF54C0FF52
:101C0F00EFC413135403FF900225E0FEEF4EFF9035
:101C1F000225EFF0900225E0FF78CFE6FE74002E4C
:101C2F00F582E43400F583EFF078D3E6FF74F82FF4
:101C3F00F582E43400F583E0FF900069EFF0900047
:101C4F0069E0FFEF5403FFEFC454F0FF900225E06B
:101C5F00FEEF4EFF900225EFF0900225E0FF78CFC8
:101C6F00E6FE74002EF582E43400F583EFF078CFB2
:101C7F00E6FF74002FF582E43400F583E0FFEF54A4
:101C8F003FFF900225EFF078D3E6FFEFC454F02426
